:020000040800F2
:1000000080650020C1010008032E0008332B000882
:10001000012E0008470300081D48000800000000EA
:100020000000000000000000000000000530000893
:10003000D3040008000000007F2F000811300008E2
:10004000DB010008DB010008DB010008DB01000820
:10005000DB010008DB010008DB010008DB01000810
:10006000DB010008DB010008D5040008DB01000803
:10007000DB010008DB010008DB010008DB010008F0
:10008000DB010008DB010008DB010008DB010008E0
:10009000DB010008DB010008DB010008DB010008D0
:1000A000DB010008DB010008DB010008DB010008C0
:1000B000DB010008DB010008DB010008DB010008B0
:1000C000DB010008DB010008DB010008DB010008A0
:1000D000DB010008DB010008DB010008DB01000890
:1000E000DB010008DB010008DB010008DB01000880
:1000F000DB010008DB010008DB010008DB01000870
:10010000DB010008DB010008DB010008DB0100085F
:10011000DB010008DB010008DB010008DB0100084F
:10012000DB0100082D040008DB010008DB010008EA
:10013000DB010008DB010008DB010008DB0100082F
:10014000DB010008DB010008DB010008052E0008C8
:10015000DB010008DB010008DB010008DB0100080F
:10016000DB010008DB010008DB010008DB010008FF
:10017000DB010008DB01000821040008000000008A
:10018000DB010008DB010008DB010008DB010008DF
:10019000DB010008DB010008DB010008DB010008CF
:1001A000DB010008DB010008DB010008DFF80CD0F0
:1001B00000F08CF800480047C54900088065002021
:1001C0000648804706480047FEE7FEE7FEE7FEE7F1
:1001D000FEE7FEE7FEE7FEE7FEE7FEE7AD300008DC
:1001E000AD0100082DE9F05F0546002092469B46D0
:1001F00088460646814640241BE02846414647463D
:10020000224600F053F853465A46C01A914110D383
:1002100011461846224600F03AF82D1A67EB0108FD
:100220004F4622460120002100F031F817EB00096B
:100230004E41201EA4F10104DFDC484631462A4627
:100240004346BDE8F09F40EA01039B0703D009E065
:1002500008C9121F08C0042AFAD203E011F8013BB2
:1002600000F8013B521EF9D27047D2B201E000F80B
:10027000012B491EFBD270470022F6E710B513464A
:100280000A4604461946FFF7F0FF204610BD202A13
:1002900004DB203A00FA02F1002070479140C2F1DD
:1002A000200320FA03F3194390407047202A04DB0F
:1002B000203A21FA02F00021704721FA02F3D040DF
:1002C000C2F120029140084319467047064C074D81
:1002D00006E0E06840F0010394E807009847103416
:1002E000AC42F6D3FFF766FF08510008285100081A
:1002F00070B58C1810F8015B15F0070301D110F8E8
:10030000013B2A1106D110F8012B03E010F8016B14
:1003100001F8016B5B1EF9D12B0705D40023521E97
:100320000DD401F8013BFAE710F8013BCB1A921CFF
:1003300003E013F8015B01F8015B521EF9D5A142FD
:10034000D8D3002070BDFEE7002070470020704722
:1003500010B500220449054802F0BEFF04490348D5
:1003600002F0B4FF002010BD744F0020A442002012
:100370007447002010B50146034802F0A7FF024869
:1003800002F089FF002010BDA44200200020704729
:10039000094A10B5D2F8BC22D2F814220AB10120C1
:1003A00010BD0A460146044802F096FFBDE8104021
:1003B000014802F0F1BF0000A442002010B5806B9C
:1003C000816B496D022902D0012180F8251000F0CF
:1003D00019F910BD10B5064C207828B9054802F06F
:1003E000F9F9002004F01CFC0120607010BD000031
:1003F00010000020000000207047000010B5064CDF
:10040000207828B9054802F0E5F9012004F008FC3D
:100410000020607010BD00001000002008000020C7
:10042000014800F0F1B80000D0410020014800F080
:10043000FFBE00001042002001681823CAB2103A23
:10044000B2FBF3F2054B6FF30901032A9B5CC36512
:1004500000D9091D81650846704700005C4C000802
:1004600010B5014600208B698A6A4FF0C07453B101
:10047000B3F5005F15D072B1012A0CD0022A0AD060
:10048000032A09D104E01AB1012A06D0022A03D1B5
:10049000C96AC90100D5012010BDC96AA142FAD0BC
:1004A00010BD002AF7D0012AF2D0022AF3D0032A85
:1004B000F3D010BD10B5046863608368402B0368F7
:1004C00003D099600068C26010BD9A600068C16086
:1004D00010BD7047102001F059B872B6FEE730B574
:1004E000D1E901231A43D1E903352B431A434B6960
:1004F0000C681A438B691A43D1E90735012C496A04
:10050000046807D01A432A436FF30E040A432243B8
:1005100002600AE024F4F8442B4321430B43416872
:1005200003606FF30E010A434260002030BD426950
:1005300042EA4101416100207047F8B51446054682
:10054000D1E9000210438A686FF01F03C96803EB0A
:10055000421242EA412108430090286101F01EF94D
:10056000064609E0601C07D024B101F017F9801B92
:10057000A04201D90320F8BDA8698006F2D400206A
:10058000F8BD0000F0B56FF00F05D1E9003405EBC0
:1005900004145B1E23432E018C682F0306EB0424F6
:1005A00023434FEA054C0C8A8E8ACD68097E4FF0B2
:1005B0007F4E07EB04440CEB06560EEB0161012A5B
:1005C0000CD082683F1107EB05352B43234333439F
:1005D00002F070420B43134383600FE08768084AC0
:1005E00017402A03A2F580523243C5683A43234399
:1005F00005F070450B432B438260C3600020F0BDC3
:10060000FF0F0FFF704770472DE9F0410446006867
:100610000569224F69074FF004060BD54661E06B70
:1006200040F00200E06384F82560A06B0765A06BD2
:1006300000F0ECFDA8070DD5216802204861E06BB1
:1006400040F00100E06384F82560A06B0765A06BB3
:1006500000F0DCFDE80605D5216810204861204641
:1006600000F059F8280705D5216808204861204680
:1006700000F002F9E8070FD020680168890703D568
:10068000C16821F01E01C1602068C16821F001012C
:10069000C1602046FFF7B7FFBDE8F081BD03000849
:1006A00010B5040003D094F8250010B104E0012037
:1006B00010BD204600F030F8022084F825002068A4
:1006C000016840F6F872914301606169606808430F
:1006D000D4E9031211430843A1680843A169084300
:1006E000216A084321680A6810430860606810287E
:1006F00005D1E17FE06961F31F60216888612068AE
:10070000C16841F01E01C1600020E063012084F84F
:100710002500002010BD70472DE9F04786B08046C7
:1007200014216846FFF7A8FD4A49D8F8000088421E
:100730007DD149484FF00009016841F00101016095
:10074000006800F0010005904348001F016841F077
:1007500001010160016801F001010591016841F0AA
:1007600080010160016801F080010591016841F09C
:1007700004010160016801F004010591016841F084
:1007800008010160016801F008010591016841F06C
:10079000020101600068022400F002000590402080
:1007A000012503260D278DE8F10069462B4800F04E
:1007B000F9FE4FF4807A01AACDF800A082E8F0009B
:1007C0006946274800F0EEFE4FF43C608DE8F100EA
:1007D0006946244800F0E6FE08208DE8F1006946ED
:1007E000214800F0DFFE4FF460708DE8F1006946AB
:1007F0001E4800F0D7FE1F4C1D4820606806C4E963
:100800000109C013C4E90390800060618000C4E95D
:10081000060AC00020620420C4E90905C4F82C902F
:100820002046C4F8309000F0D3FD18B100E00DE090
:10083000FFF753FEC8F83840002211464E20C4F896
:10084000388001F019F84E2001F008F806B0BDE834
:10085000F0870000000005503438024000000240DC
:10086000001C024000080240000C0240000402404C
:10087000286402401042002010B5044603F0EEFF49
:100880002068C16841F00801C16010BD2DE9F84F32
:10089000044600200A9D0090A0684FF4807A8028CA
:1008A00017D0E06BB8B1606CA8B1E06C98B194F867
:1008B0003400012813D0012084F8340094F8356006
:1008C0000020012E0DD084F8340002200090BDE8F5
:1008D000F88F504600E0402060650120F7E70220D5
:1008E000F5E7022684F8356060652068066846F4FE
:1008F00080260660206803612B462046FFF7DAFD5C
:10090000DFF800844FF4006B4FF4001EFE48FD4AF0
:10091000FD4BFC4DFC4EFB4FDFF8ECC3DFF8E493DE
:100920002168483A603318351836303F0CF1780C9E
:1009300009F13009414534D9814205D0914203D0B3
:10094000994201D0A94201D1202125E0B14205D030
:10095000B94203D0614501D0494501D159461BE058
:10096000DFF8A48308F13008414511D0DFF8948303
:10097000A8F1180841450BD0DFF88C8308F19008E6
:10098000414505D0DFF87C8308F14808414501D195
:10099000714601E04FF00061DFF86883A8F14C0870
:1009A00039E0DFF8648308F1A808414536D981426F
:1009B00005D0914203D0994201D0A94201D1202112
:1009C00025E0B14205D0B94203D0614501D0494587
:1009D00001D159461BE0DFF8308308F1300841456A
:1009E00011D0DFF82083A8F1180841450BD0DFF8BB
:1009F000188308F19008414505D0DFF8088308F115
:100A00004808414501D1714601E04FF00061DFF82F
:100A1000F482A8F15008C8F8001072E0DFF8E8820C
:100A200008F14808414536D9814205D0914203D0AA
:100A3000994201D0A94201D1202125E0B14205D03F
:100A4000B94203D0614501D0494501D159461BE067
:100A5000DFF8B48208F13008414511D0DFF8A482F4
:100A6000A8F1180841450BD0DFF89C8208F19008E6
:100A7000414505D0DFF88C8208F14808414501D195
:100A8000714601E04FF00061DFF87C82A8F11008A8
:100A9000C8F80C1035E0814205D0914203D099424C
:100AA00001D0A94201D1202125E0B14205D0B942AF
:100AB00003D0614501D0494501D159461BE0DFF81B
:100AC000488208F13008414511D0DFF83882A8F19A
:100AD000180841450BD0DFF8308208F190084145F5
:100AE00005D0DFF8208208F14808414501D1714660
:100AF00001E04FF00061DFF81082A8F11008C8F89B
:100B00000810DFF8008221684FF4806B4FF4801EDC
:100B1000414534D9814205D0914203D0994201D058
:100B2000A94201D1102125E0B14205D0B94203D03C
:100B3000614501D0494501D159461BE0DFF8C88124
:100B400008F13008414511D0DFF8B881A8F1180844
:100B500041450BD0DFF8B08108F19008414505D040
:100B6000DFF8A08108F14808414501D1714601E054
:100B70004FF08061DFF88C81A8F14C0839E0DFF894
:100B8000888108F1A808414536D9814205D09142B3
:100B900003D0994201D0A94201D1102125E0B142F0
:100BA00005D0B94203D0614501D0494501D159462C
:100BB0001BE0DFF8548108F13008414511D0DFF81F
:100BC0004481A8F1180841450BD0DFF83C8108F1B9
:100BD0009008414505D0DFF82C8108F148084145CF
:100BE00001D1714601E04FF08061DFF81881A8F172
:100BF0005008C8F8001072E0DFF80C8108F14808CE
:100C0000414536D9814205D0914203D0994201D065
:100C1000A94201D1102125E0B14205D0B94203D04B
:100C2000614501D0494501D159461BE0DFF8D88024
:100C300008F13008414511D0DFF8C880A8F1180844
:100C400041450BD0DFF8C08008F19008414505D040
:100C5000DFF8B08008F14808414501D1714601E054
:100C60004FF08061DFF8A080A8F11008C8F80C10E0
:100C700035E0814205D0914203D0994201D0A9428A
:100C800001D1102125E0B14205D0B94203D0614520
:100C900001D0494501D159461BE0DFF86C8008F1CD
:100CA0003008414511D0DFF85C80A8F118084145B3
:100CB0000BD0DFF8548008F19008414505D0DFF8EB
:100CC000448008F14808414501D1714601E04FF0E8
:100CD0008061DFF83480A8F11008C8F80810DFF848
:100CE000248021684FF4007B4FF4002E414534D915
:100CF000814205D0914203D0994201D0A94205D149
:100D0000082125E05864024010600240B14205D03D
:100D1000B94203D0614501D0494501D1594617E098
:100D2000DFF8E08441450FD0DFF8DC8441450BD08B
:100D3000DFF8D08408F16008414505D0DFF8C884A9
:100D400008F16008414501D1714601E04FF00071A2
:100D5000DFF8B484A8F1340835E0DFF8A88408F19E
:100D60007808414532D9814205D0914203D0994259
:100D700001D0A94201D1082121E0B14205D0B942F8
:100D800003D0614501D0494501D1594617E0DFF84C
:100D9000748441450FD0DFF8708441450BD0DFF8F3
:100DA000648408F16008414505D0DFF85C8408F1EF
:100DB0006008414501D1714601E04FF00071DFF854
:100DC0004884A8F13808C8F800106AE0DFF83484D5
:100DD00008F11808414532D9814205D0914203D02B
:100DE000994201D0A94201D1082121E0B14205D0A8
:100DF000B94203D0614501D0494501D1594617E0B8
:100E0000DFF8008441450FD0DFF8FC8341450BD06B
:100E1000DFF8F08308F16008414505D0DFF8E8838A
:100E200008F16008414501D1714601E04FF00071C1
:100E3000DFF8D083A8F14008C8F80C1031E08142F7
:100E400005D0914203D0994201D0A94201D1082195
:100E500021E0B14205D0B94203D0614501D04945F6
:100E600001D1594617E0DFF89C8341450FD0DFF8E8
:100E7000988341450BD0DFF88C8308F16008414529
:100E800005D0DFF8848308F16008414501D171463F
:100E900001E04FF00071DFF86C83A8F14008C8F85A
:100EA0000810DFF86483216808F118084FF4802BDC
:100EB0004FF0807E41452FD9814205D0914203D029
:100EC000994201D0A94201D1042120E0B14205D0CC
:100ED000B94203D0614501D0494501D1514616E0E0
:100EE000DFF8208341450FD0DFF81C8341450BD04C
:100EF000DFF8108308F16008414505D0DFF808836A
:100F000008F16008414501D1594600E07146DFF81B
:100F1000F882A8F1340834E0DFF8E88208F17808B4
:100F2000414531D9814205D0914203D0994201D047
:100F3000A94201D1042120E0B14205D0B94203D039
:100F4000614501D0494501D1514616E0DFF8B48230
:100F500041450FD0DFF8B08241450BD0DFF8A482C5
:100F600008F16008414505D0DFF89C8208F160086F
:100F7000414501D1594600E07146DFF88C82A8F165
:100F80003808C8F8001068E0DFF8788208F118081F
:100F9000414531D9814205D0914203D0994201D0D7
:100FA000A94201D1042120E0B14205D0B94203D0C9
:100FB000614501D0494501D1514616E0DFF8448230
:100FC00041450FD0DFF8408241450BD0DFF8348235
:100FD00008F16008414505D0DFF82C8208F160086F
:100FE000414501D1594600E07146DFF81882A8F169
:100FF0004008C8F80C1030E0814205D0914203D07F
:10100000994201D0A94201D1042120E0B14205D08A
:10101000B94203D0614501D0494501D1514616E09E
:10102000DFF8E08141450FD0DFF8DC8141450BD08E
:10103000DFF8D08108F16008414505D0DFF8C881AC
:1010400008F16008414501D1594600E07146DFF8DA
:10105000B481A8F14008C8F80810DFF8AC81216815
:1010600008F118084FF4803A4FF4800B414527D916
:10107000814205D0914203D0994201D0A94201D1C9
:1010800001201AE0B14205D0B94203D0614501D038
:10109000494501D1402010E05A4881420AD05A48BF
:1010A000814207D057486030814203D056486030B3
:1010B000814201D1504600E05846534934392CE072
:1010C000DFF8408108F17808414528D9814205D0F0
:1010D000914203D0994201D0A94201D101201AE0E6
:1010E000B14205D0B94203D0614501D0494501D193
:1010F000402010E0434881420AD04348814207D053
:1011000040486030814203D03F486030814201D185
:10111000504600E058463C493839086056E0DFF850
:10112000E48008F11808414528D9814205D0914250
:1011300003D0994201D0A94201D101201AE0B14265
:1011400005D0B94203D0614501D0494501D14020C5
:1011500010E02C4881420AD02B48814207D0294810
:101160006030814203D028486030814201D150462E
:1011700000E0584623494039C86027E0814205D045
:10118000914203D0994201D0A94201D101201AE035
:10119000B14205D0B94203D0614501D0494501D1E2
:1011A000402010E0174881420AD01748814207D0FA
:1011B00014486030814203D013486030814201D12D
:1011C000504600E058460F49403988602068016861
:1011D00041F0160101602068416941F080014161E0
:1011E000206C08B9A06C20B12068016841F00801AA
:1011F00001602068016841F0010101600098BDE8CC
:10120000F88F0000406002404064024090F83510C2
:10121000022903D08021416501207047052180F813
:1012200035100068016821F001010160002070475D
:101230002DE9F84304464FF00009CDF800906348CB
:101240004FF41651A56D0068B0FBF1F72E6894F8C5
:101250005C10082000FA01F131420FD021680A68C1
:1012600052070BD50A6822F004020A6094F85C1059
:101270008840A860606D40F00100606594F85C10E3
:101280004FF0010808FA01F0304208D0216849699E
:10129000090604D5A860606D40F00200606594F80E
:1012A0005C1004208840304208D021680968890712
:1012B00004D5A860606D40F00400606594F85C108F
:1012C00010208840304218D021680968090714D5D9
:1012D000A86020680168490304D50068000308D5A8
:1012E000A16C07E00168C90503D4016821F0080179
:1012F0000160216C09B12046884794F85C102020D9
:101300008840304231D021680968C9062DD5A860CF
:1013100094F8350005282068016806D0490347D5B0
:10132000006800031DD4616C1CE021F0160101600F
:101330002068416921F080014161206C08B9A06CEE
:1013400020B12068016821F00801016094F85C1068
:101350003F208840A86084F8349084F83580216D5F
:101360001FE0E16B09B120468847606D00282BD053
:10137000606DC00714D0052084F83500206801682E
:1013800021F0010101600098401C0090B84203D890
:1013900020680068C007F6D184F8349084F835805E
:1013A000E16C002910D001B02046BDE8F0430847A9
:1013B0000168C905D5D4016821F01001016084F8E5
:1013C000349084F83580CCE7BDE8F88390000020A5
:1013D0002DE9F041044600F0E1F906465CB1002534
:1013E00084F83450022084F835002068016821F028
:1013F000010101600DE00120BDE8F08100F0CEF9AF
:10140000801B052805D920206065032084F835005D
:10141000F2E720680068C007F0D122681168204810
:101420000140D4E901031843D4E903363343184398
:1014300063691843A3691843E3691843236A18438F
:101440000843616A042903D1D4E90B131943084303
:10145000106020684069666A20F0070130460E433C
:10146000012704280CD1A06A0643E06A40B1204657
:10147000FEF7F6FF20B14020606584F83570BAE7CA
:10148000206846612046FEF7D7FF94F85C203F2194
:1014900091408160656584F835700020ACE70000FC
:1014A0003F8010F070B5044600F078F90546601CE6
:1014B00002D004480078044400F070F9401BA042B8
:1014C000FAD370BD84000020F0B587B014216846BF
:1014D000FEF7D2FE25480168002944D101210160B0
:1014E00023480024016841F00101016000680225E1
:1014F00000F0010005904FF63F00CDE9000502AA7B
:1015000003260C2782E8D00069461A4800F04AF802
:101510000D20CDE9000502AA694682E8D0001648F0
:1015200000F040F848F23710CDE9000502AA6946FC
:1015300082E8D000114800F035F84FF68070CDE910
:10154000000502AA694682E8D0000D4800F02AF89A
:101550004CF20370CDE9000502AA694682E8D0008A
:10156000084800F01FF807B0F0BD00001800002088
:1015700038380240001402400008024000180240BF
:1015800000100240000C024070470000044910B5F2
:101590000A68024202D00860FFF7F6FF10BD0000A3
:1015A000143C01402DE9F84F00224FF001080325BB
:1015B0004FF00F0E0B6808FA02F42340A3426ED1DD
:1015C0004E68012E05D0022E03D0112E01D0122E0E
:1015D00012D186684FEA420C05FA0CF7BE43CF6879
:1015E00007FA0CF7374387604668A6430C79C4F3C3
:1015F0000014944034434460C668570005FA07FC61
:101600008C6826EA0C06BC403443C4604C68022C4B
:1016100001D0122C13D1D40800EB8404A346D4F8D3
:10162000209054074FEAD46A0EFA0AF629EA06090E
:101630000E6906FA0AF646EA0906CBF82060046845
:101640000E7924EA0C0406F00306BE402643066029
:101650004C68E4006FD53B4C266846F48046266013
:10166000246822F0030604F480440094364C344489
:10167000A446D4F808489607360F0EFA06F7BC437E
:10168000324FB84201D100272EE0314FB84201D18C
:10169000012729E02F4FB84202D1022724E04AE077
:1016A0002D4FB84201D103271EE02C4FB84201D183
:1016B000042719E02A4FB84201D1052714E0294F29
:1016C000B84201D106270FE0274FB84201D10727C2
:1016D0000AE0264FB84201D1082705E0244FB8425E
:1016E00001D1092700E00A27B7402743CCF8087842
:1016F000204E34684F689C43FF0300D51C43346080
:101700001C4E361D34684F689C43BF0300D51C43F4
:101710003460184E083634684F689C43FF0200D589
:101720001C433460134E0C3634684F689C43BF0230
:1017300000D51C433460521C102AFFF43BAFBDE8B7
:10174000F88F0000443802400030014000000240A1
:101750000004024000080240000C02400010024059
:101760000014024000180240001C02400020024009
:1017700000240240003C01400069084000D00120E4
:101780007047426931EA020200D109048161704761
:101790000AB1816170470904FBE7000001488068D5
:1017A00070470000840000200248816802781144DC
:1017B00081607047840000200B4810B5016841F437
:1017C00000710160016841F480610160016841F4C9
:1017D00080710160032000F06FF8002000F006F82F
:1017E00000F024F8002010BD003C024070B50D4D03
:1017F00004464FF47A712878B1FBF0F00A49096881
:10180000B1FBF0F000F0CCFF48B9102C07D2002259
:101810002146501E00F030F800206C6070BD0120A1
:1018200070BD000084000020900000200A4808B528
:10183000016841F480410160006800F4804000903C
:101840000548001F016841F080510160006800F008
:101850008050009008BD000044380240002809DB99
:1018600000F01F02012191404009800000F1E020BA
:10187000C0F8001170470000F0B40E4B1B680C4616
:10188000C3F30223C3F10705042D00D90425191D54
:10189000072901D2002300E0DB1E012606FA05F12C
:1018A000491E214099409E40761E16403143F0BCAF
:1018B00002F0B5BF0CED00E0064900F00702086831
:1018C0004FF6FF03184040EA0220034A1043086025
:1018D000704700000CED00E00000FA05704700685A
:1018E000416200207047F0B50368586A39B19C6ABC
:1018F0004FF4827600EB144400204D1E0AE040EACB
:10190000024098620FE006EB8007DF59401C04EBB1
:101910001744C0B2A842F6D344EA02404FF48072A2
:1019200002EB810158500020F0BDD0F8040401F012
:1019300072BFC1EBC10200EB8202D0F80404926CCA
:1019400001F0DDBEC1EBC10200EB8202D0F804045D
:10195000D2F8082201F028BFD0F8040401F05DBFDE
:1019600070B504460B0601F00F00C0EBC00104EB9C
:1019700081014FF001024FF0000503D581F83D20B1
:101980003C3103E081F8FD5101F5FE71087094F8D7
:10199000BC03012808D084F8BC23206802F0D6FAE2
:1019A00084F8BC53002070BD022070BD70B50446A1
:1019B00001F00F006268904201D9012070BD0B0652
:1019C00001F00F01C1EBC10104EB81014FF00102F5
:1019D0004FF0000503D581F83D203C3103E081F84C
:1019E000FD5101F5FE718D70087094F8BC0301285B
:1019F00008D084F8BC23206802F0A2FC84F8BC5311
:101A0000002070BD022070BD01F00F01C1EBC101CB
:101A100000EB8100D0F8140270472DE9F041044634
:101A20000F0601F00F00C0EBC00104EB81014FF085
:101A300001064FF0000503D581F83D603C3103E01D
:101A400081F8FD5101F5FE7108708A60CB704A780B
:101A500002B1C880022B00D10D7194F8BC0301289B
:101A600009D084F8BC63206802F0CCF9284684F8D9
:101A7000BC53BDE8F0810220FBE770B50C4601F0D5
:101A80000F05C5EBC50100EB8101C1F81032C1F8AB
:101A900008220023C1F8143281F8FD3181F8FC518D
:101AA000036901F5FE71012B00D10A612207027C56
:101AB000006803D002F09CFC002070BD02F088FB9F
:101AC000FAE770B504460D4601F00F0061688842E0
:101AD00001D9012070BD29064FF000064FF0010228
:101AE00007D5C0EBC00104EB810181F83D203C31FA
:101AF00007E0C5EBC50104EB810181F8FD6101F54B
:101B0000FE718A70087094F8BC03012807D084F82D
:101B1000BC23206802F040FC280702D007E0022026
:101B200070BD217C04F57172206802F0DDFB84F841
:101B3000BC63002070BD70B50C4601F00F05C5EB0D
:101B4000C50100EB81010B658A6400234B6501230D
:101B500081F83D3001F83C5F0369012B00D10A6137
:101B60002207027C006803D002F042FC002070BD16
:101B700002F02EFBFAE700002DE9FC5F0568044641
:101B8000284602F05EFD00287ED1206802F085FD27
:101B9000002879D0206802F080FD800704D52168F4
:101BA000486900F002004861206802F076FDC10635
:101BB00004F57170009034D52068816921F010011E
:101BC00081612F6A07F00F00C0EBC00004EB8006B4
:101BD000C7F3434006F5FE76022802D0062811D04E
:101BE0001AE047F6F070074216D0C7F30A121746FC
:101BF0002846F16802F055FDF0683844F060B0699D
:101C0000384408E008222846009902F04AFDB069ED
:101C1000C7F30A110844B0612068816941F01001DE
:101C20008161206802F039FD00034FF0010A4FF096
:101C3000080B5BD50026206802F00EFD0746DFF892
:101C4000689351E0F8074DD0F1B2206802F01DFD15
:101C50008046C00707D005EB4611C1F808AB3146F6
:101C6000204601F0D5F85FEA087022D505EB461151
:101C7000C1F808BB2068016C00EB46100191D0F858
:101C8000082B494507D900E08BE1110403D54FF437
:101C90000041C0F8081B204600F076FA019848453C
:101CA00007D92069012804D120680121009A02F097
:101CB0001BFB5FEAC86004D505EB46111020C1F894
:101CC000080B5FEA886004D505EB46112020C1F8B7
:101CD000080B5FEA884005D505EB46104FF400512C
:101CE000C0F8081B7F08761C002FABD1206802F0DB
:101CF000D4FC40034FF000095CD5206802F0A5FC3D
:101D00000746002654E0F80750D0F1B2206802F0F0
:101D1000AAFC8046C00723D006F00F020AFA02F0A0
:101D2000D5F834288243C5F8342805EB4610C0F8AE
:101D300008A9206901280FD1C6EBC60004EB80007A
:101D4000D0E911211144816436B9206D20B9206891
:101D50000121009A02F0C8FAF1B22046FFF7E9FD2E
:101D60005FEA087003D505EB4611C1F808B95FEAD0
:101D7000C86004D505EB46111020C1F808095FEAD8
:101D8000486004D505EB46114020C1F808095FEA18
:101D9000887004D505EB46110220C1F808095FEAF6
:101DA000086003D53146204601F098F87F08761C7C
:101DB000002FA8D1206802F070FC002811DAD5F8B5
:101DC000040820F00100C5F8040894F8F403012881
:101DD00029D0204600F0BCF92068416901F000419B
:101DE0004161206802F059FC00050BD5D5F80808C0
:101DF000C00702D0204600F0EFF92068416901F4E5
:101E000000614161206802F048FCC00468D5D5F843
:101E1000040820F00100C5F804081021206802F031
:101E2000F1FB002127E084F8F49300212046FFF71E
:101E300055FDD1E705EB41104FF67F32C0F8082978
:101E4000D0F8003923F40013C0F80039D0F8003975
:101E500043F00063C0F80039C0F8082BD0F8002B1D
:101E600022F40012C0F8002BD0F8002B42F00062E0
:101E7000C0F8002B491C60688842DBD8D5F81C08E4
:101E800040F00110C5F81C08206B60B1D5F884083B
:101E900040F00B00C5F88408D5F8440840F00B006A
:101EA000C5F844080CE0D5F8141842F22B000143A1
:101EB000C5F81418D5F8100840F00B00C5F8100844
:101EC000D5F8000820F4FE60C5F80008217C2068E1
:101ED000009A02F009FA2068416901F480514161D9
:101EE000206802F0DAFB800415D5206801F0CAFFF3
:101EF000206802F099FBE06000F020FA0146227BA6
:101F0000206802F005FC204600F00CF920684169C9
:101F100001F400514161206802F0BFFB000707D5C2
:101F2000204600F019F92068416901F0080141617B
:101F3000206802F0B2FBC00208D50021204600F064
:101F400035F82068416901F480114161206802F090
:101F5000A4FB800208D50021204600F02BF8206861
:101F6000416901F400114161206802F096FB4000D4
:101F700007D52046FFF7D9FC2068416901F0804170
:101F80004161206802F089FB40070AD52068456856
:101F9000680702D52046FFF7DFFC20684168294327
:101FA0004160BDE8FC9F00000A30544FD0F80404A3
:101FB00001F084BCD0F8040401F082BC2DE9F041AA
:101FC0008AB0040005D094F8BD032668002520B12E
:101FD00008E001200AB0BDE8F08184F8BC53204637
:101FE00000F05EF8032084F8BD03F06BC00500D458
:101FF0002561206802F0E6F804F1100128228846E5
:102000006846FEF720F994E80F0001F049FF022628
:10201000C8BB0021206802F052FB002001270EE01F
:10202000C0EBC00104EB810181F83D7001F83C0F69
:10203000C880CD708D60CD60401CC0B24D616168BC
:102040008142EDD8002011E0C0EBC00104EB81011A
:1020500081F8FD5181F8FC0181F8FF51C1F804526B
:10206000C1F80852401CC0B2C1F8105261688142E8
:10207000EAD8282241466846FEF7E5F894E80F00C2
:1020800001F0E6FF10B184F8BD63A2E784F8385090
:1020900084F8BD73206801F0CDFF00209AE70000AE
:1020A00010B586B0044614216846FEF7E5F82068AE
:1020B000B0F1A04F2FD119480021026842F001026F
:1020C0000260006800F0010005904FF4C0500090DD
:1020D0000220CDE90101032003900A200490694603
:1020E0000F48FFF75FFA0D48001D016841F08001BD
:1020F00001600A481430016841F4804101600068C1
:10210000002200F48040059011464320FFF7B4FB05
:102110004320FFF7A3FB06B010BD0000303802409B
:102120000000024070B50446C068012570B1022865
:1021300001D0FEF7D2F92946D4F8040401F016FCC8
:10214000D4F80404BDE8704001F0D1BB0025F2E7EB
:10215000D0F8040401F0F4BBD0F8040401F0FABB99
:1021600010B5044690F8BC0301280BD0012084F878
:10217000BC0384F83810206802F0B8FA002084F814
:10218000BC0310BD022010BDD0F8042400F571710D
:10219000104601F0F7BB10B50446006894F8BC1374
:1021A000012906D0012184F8BC13A16A012902D0BB
:1021B00008E0022010BDA169012903D0816B41F420
:1021C00080318163206802F007FA206801F024FF63
:1021D000002084F8BC0310BD10B50446D0F80404F8
:1021E00001F012FC2068D0F8001E41F00101C0F897
:1021F000001E206A002804D00248016841F0060150
:10220000016010BD10ED00E02DE9F0470E4605001D
:1022100065D0DFF81481D8F80000F7B200F00F00A5
:10222000B04207D288F80070D8F8000000F00F0024
:10223000B04254D128683D4C810712D5400703D5E0
:10224000206840F4E05020602878000703D520681B
:1022500040F4604020602068A96820F0F000084346
:1022600020602878C0072DD03049686808390128D7
:1022700012D0022813D0032811D009688907002939
:102280002DDA216821F0030101432160FFF786FA6E
:10229000814641F2883A0EE009688903EFE7096850
:1022A0008901ECE7FFF77AFAA0EB0901514502D961
:1022B0000320BDE8F0872068696800F00C00B0EBEF
:1022C000810FEFD1D8F80010404601F00F01B14264
:1022D00007D90770006800F00F00B04201D001205C
:1022E000E7E72878400705D52068E96820F4E05042
:1022F000084320602878000706D52068296920F463
:10230000604040EAC100206000F01EF82168084AE1
:10231000C1F30311515CC8400649086006480068D3
:10232000FFF764FA0020C4E7003C0240083802408E
:10233000644C0008900000208800002001480068DC
:102340007047000090000020154810B5006810F09C
:102350000C02144813D01449042A0FD0082A0ED1B5
:102360000F4C241F2268236802F03F025B0207D54E
:102370002068C0F38810A0FB010106E0084610BDEC
:102380002168C1F38811A1FB00010023FDF72AFF9A
:102390002168C1F30141491C4900B0FBF1F010BDB7
:1023A000083802400024F40040787D012DE9F84F00
:1023B00004006ED02078DFF83C93C007A9F1040533
:1023C0004AD009F104000168C1F38101012908D054
:1023D0000068C0F3810002280AD1D9F80000400249
:1023E00006D52868800337D560680028E1D033E03F
:1023F0006068B0F5803F10D0B0F5A02F286810D0ED
:1024000020F480302860286820F4802028606068EC
:10241000A8B1FFF7C3F906460DE0286840F4803004
:10242000F4E740F480202860F7E700BFFFF7B6F933
:10243000801B642873D828688003F7D50CE0FFF769
:10244000ADF9064605E000BFFFF7A8F9801B642838
:10245000F0D828688003F7D42078DFF89C828007C2
:102460004FF0000A3ED5A348001D016811F00C0F83
:1024700008D00068C0F3810002280BD1D9F8000011
:10248000400207D42868800716D5E068012800D1EB
:1024900012E02BE1E068B8B10120C8F80000FFF7B6
:1024A0007DF9064605E000BFFFF778F9801B02289A
:1024B000C0D828688007F7D52868216920F0F8007F
:1024C00040EAC10028600DE0C8F800A0FFF766F9F7
:1024D000064604E0FFF762F9801B02281FD828682F
:1024E0008007F7D42078000722D5824E834861699F
:1024F000703671B101210160FFF750F9074604E021
:10250000FFF74CF9C01B022809D830688007F7D5BF
:102510000EE0C0F800A0FFF741F9074605E082E0B1
:10252000FFF73CF9C01B02287DD830688007F7D43C
:102530002078400768D5DFF8BCB100270BF13C0BD1
:10254000DBF80000C0000BD4DBF8001041F0805134
:10255000CBF80010DBF80000012700F0805000905D
:10256000674E3068C00510D4306840F48070306029
:10257000FFF714F9009005E0FFF710F90099401AF1
:10258000022850D83068C005F6D55A4EA0686C367F
:1025900001280FD00528306810D020F001003060ED
:1025A000306820F004003060A068B8B1FFF7F6F89A
:1025B00000900FE0306840F00100F4E740F00400C4
:1025C0003060F7E7FFF7EAF80099411A41F28830E6
:1025D000814266D830688007F4D50EE0FFF7DEF858
:1025E000009007E0FFF7DAF80099411A41F28830CD
:1025F000814256D830688007F4D42FB1DBF8001040
:1026000021F08051CBF80010A069C8B33949091DE9
:102610000968C1F3810102294AD00228504607D037
:10262000C8F8600000E03CE0FFF7B8F804463BE083
:102630004746C8F86000FFF7B1F8064605E000BF5E
:10264000FFF7ACF8801B02282BD828688001F7D44C
:10265000D4E907010843A16A2A4A490802EB01416B
:10266000626A41EA8211084394F82C1040EA016141
:10267000C9F8001001203866FFF790F8044606E01C
:1026800036E000BFFFF78AF8001B022809D8286847
:102690008001F7D52CE000BFFFF780F8001B02286F
:1026A00002D90320BDE8F88F28688001F4D41FE028
:1026B0000128F7D0D9F80000E26900F480019142C6
:1026C00014D1226A00F03F0191420FD147F6C07148
:1026D000626A0140914209D1A26A00F440319142FC
:1026E00004D1E16A00F07060884201D00120D9E78E
:1026F0000020D7E70438024000004742800E4742DE
:10270000007000400000FFFF70B50D46040003D0CC
:1027100094F82C0010B107E0012070BD002084F86F
:102720002D00204600F011F8022084F82C00211D15
:102730002068FDF7D4FED4E900022946FDF722FF08
:10274000012084F82C00002070BDFEF7BDBE10B53E
:10275000044690F82C00022809D0022084F82C00AE
:102760002068FDF7E4FE012084F82C00002010BD55
:1027700070B5044690F82C000D4602280DD00220BA
:1027800084F82C002068FDF7D8FE2868022805D0C0
:102790005FF0010084F82C00002070BD0520F9E7EF
:1027A00010B5401EB0F1807F01D3012010BD4FF065
:1027B000E02460610F21601702F031F80020A06171
:1027C00007202061002010BD83880A460068194652
:1027D000FEF7DEBF81880068FEF7D3BF012100F05D
:1027E00084B810B50446016901208847E1680120DA
:1027F0008847E16905208847216900208847E16909
:1028000005208847E168BDE810400020084710B562
:102810000446016900208847E16905208847E1688E
:1028200001208847E1690520884721690120884700
:10283000E169BDE810400520084770B5044681698C
:1028400000208847E16905208847E1680120884722
:10285000E16905208847606980470546E1680020F6
:102860008847A16901208847284670BD70B5064693
:10287000002581692846884700246D003046FFF70F
:10288000DCFF641C2844E4B2C5B2082CF5D3B1695E
:1028900001208847284670BD70B50D460446FFF7F5
:1028A000A0FF2178204600F033F8290A204600F0E6
:1028B0002FF8E9B2204600F02BF82046FFF7A7FFDB
:1028C0002046FFF78EFF207840F00101204600F0FF
:1028D0001FF82046FFF7CAFF05462046FFF77EFF98
:1028E0002046FFF794FF284670BD10B504460269E4
:1028F00008469047E16905208847E168012088473C
:10290000E16905208847E168BDE8104000200847DC
:1029100070B50D4606460024E9093046FFF7E5FF8D
:102920006806641C050EE4B2082CF5D33046BDE8F9
:102930007040FFF782BF2DE9F04117460D4606466D
:102940000024FFF74EFF31783046FFF7E1FF00B17A
:102950000124290A3046FFF7DBFF00B10224E9B267
:102960003046FFF7D5FF00B1032439463046FFF764
:10297000CFFF00B104243046FFF749FF2046BDE8F1
:10298000F0812DE9F0410D4606464FF47A7703E0D9
:10299000F16938468847641CAC42F9D3BDE8F08140
:1029A00070B5054643F20A01FFF776FF4FF6FF7157
:1029B00001EA002443F20B012846FFF76DFF204493
:1029C00080B270BD70B50446007808B978202070D8
:1029D000A1690120884761680020884714212046AA
:1029E000FFF7CFFFA1680020884705212046FFF7A9
:1029F000C8FF61680120884714212046FFF7C1FF06
:102A0000204600F083F8074E002500BF06EB850046
:102A100036F8251082782046FFF78DFF6D1CCF2DEC
:102A2000F4D370BDCC4D000870B5084D06460024A7
:102A300005EB840035F8241082783046FFF77BFFE1
:102A4000641CA4B2292CF3D370BD0000744C0008A0
:102A50002DE9F04715460E4643F212281C468146E2
:102A600003224146089FFFF766FF220A43F608014A
:102A70004846FFF760FFE2B243F609014846FFF718
:102A80005AFF3A0A43F60A014846FFF754FFFAB2E2
:102A900043F60B014846FFF74EFF320A43F610019A
:102AA0004846FFF748FFF2B243F611014846FFF7E8
:102AB00042FF2A0A43F612014846FFF73CFFEAB2FA
:102AC00043F613014846FFF736FF132241464846B6
:102AD000FFF731FF41464846BDE8F047A322FFF724
:102AE0002ABF000070B5084D0646002405EB84009F
:102AF00035F8241082783046FFF71DFF641CA4B21D
:102B00002D2CF3D370BD0000184D000810B50446FD
:102B1000112243F20311FFF70EFF822243F2080154
:102B20002046FFF708FF2046BDE810400A21FFF7C6
:102B300028BFFEE7F0B500230A24302537261F46BC
:102B400011E000BFB4EB107F02D905EB107C01E06F
:102B500006EB107C01F813C001EB430C00015B1C79
:102B60008CF80170DBB29342ECD3F0BD0B4810B58A
:102B70000949016000212022C0E90112C160016100
:102B8000416181610162FDF78BFD002803D0BDE842
:102B90001040FDF7A2BC10BD00000550D041002040
:102BA000094808B5016841F480010160006800220D
:102BB00000F48000009011463920FEF75DFEBDE86C
:102BC00008403920FEF74ABE3038024000B587B0D1
:102BD0001C216846FDF750FB174816490022C0E942
:102BE00000120121816008211023C0E90313402352
:102BF00043614FF4C073C0E906320A0202624A021E
:102C000042628A0282620220CDE90001062102911D
:102C100003910421CDE90410069069460648FFF7A8
:102C200073FD08B1FDF759FC034800F0A9F907B09E
:102C300000BD0000400100A0704200202DE9F047D7
:102C400086B014216846FDF717FB52484FF0000A82
:102C5000016841F020010160016801F02001059147
:102C6000016841F080010160016801F08001059177
:102C7000016841F004010160016801F0040105915F
:102C8000016841F001010160016801F00101059155
:102C9000016841F002010160016801F00201059143
:102CA000016841F040010160016801F040010591B7
:102CB000016841F010010160016801F01001059107
:102CC000016841F008010160016801F00801059107
:102CD000016841F48071016000682F4F00F480703A
:102CE0000590002220213846FEF752FDDFF8AC8027
:102CF000012203214046FEF74BFDDFF8A4904FF47C
:102D00000046002231464846FEF742FD00221821C7
:102D10004046FEF73DFD1020009022480124CDE9F9
:102D2000010469463846FEF73DFC2020CDE9000449
:102D3000032569463846CDE90245FEF733FCCDE967
:102D4000005469464046CDE90245FEF72BFCFF20C2
:102D5000CDE9000A694602941348FEF723FCCDE949
:102D6000006469464846CDE90245FEF71BFC182081
:102D7000CDE900040220CDE9024069464046FEF755
:102D800011FC002211460A20FEF776FD06B0BDE8D0
:102D9000F087000030380240001C0240000402406E
:102DA00000000240000011100020024010B5002277
:102DB0000F49104800F077FC08B1FDF78EFB0E4973
:102DC0000C4800F049FE08B1FDF787FB0B490948A4
:102DD00000F075FA08B1FDF780FB064800F0B6FE7A
:102DE000002803D0BDE81040FDF777BB10BD000000
:102DF00020000020A442002070010020700000206C
:102E0000FEE7FEE70148FEF7B7BE0000745700205A
:102E10002DE9F04103680D4604461E6C03EB451195
:102E2000D1F8080BD4F810E04FF400474FF0200C15
:102E300004F57172BEF1010F09D0DFF898E0764514
:102E400039D1020432D500BFC1F8087B3FE0224BE4
:102E50005FEA007E04D59E4239D90004F4D436E0FE
:102E60005FEA806E02D5C1F808CB30E010F0280F81
:102E70002DD19E4201D90004E6D4C5EBC50004EB78
:102E80008000D1F8101BD0F80432C1F31201591A96
:102E9000C0F81412D0F808121944C0F8081295B9F5
:102EA000D4F8100278B9012120680AE080060AD51A
:102EB000C1F808CB07E035B9D4F8100218B90021E1
:102EC000184601F011FAE9B22046FEF73BFD00205A
:102ED000BDE8F0810A31544F0A30544F2DE9F84FC4
:102EE0000E46C1EBC60100EB810481460568D4E9BA
:102EF00014103C34884202D90120BDE8F88F081A2A
:102F0000A168814200D20846C01C870805EB46181C
:102F10001BE000BFA0EB010AA068504500D282462A
:102F20000AF10300870899F8100000901FFA8AF34D
:102F3000F2B22846E16801F05FFCE16801EB0A00AB
:102F4000E060A16901EB0A00A061D8F8180980B21D
:102F5000B84205D3D4E90501814201D20028D9D174
:102F6000D4E90501884208D806F00F010120884005
:102F7000D5F834188143C5F834180020BDE77047F0
:102F800010B5002301221146184600F021F84FF435
:102F9000FA7001F0C1FC002301220221184600F062
:102FA00017F8002308220321184600F011F84FF407
:102FB0000C7301220421002000F00AF8BDE8104043
:102FC00040F2AB210148FFF7C2BB00007042002075
:102FD0001FB5002410B1012802D002E0102400E047
:102FE0000824CDE90014CDE902234FF4805269464C
:102FF0000348FFF7BDFB002800D0012004B010BD3E
:103000007042002070470178407841EA0020704704
:10301000FEF7CABB70B592B030216846FDF72CF9B7
:1030200014210CA8FDF728F91E480025016841F07D
:1030300080510160006800F0805011901A480168CA
:1030400021F4404141F4804101600068022400F411
:103050004040119001200090000401908001CDE9D2
:1030600006400F2608969020CDE9090405200B9014
:103070006846FFF79BF908B172B6FEE74FF4A0501F
:10308000CDE90E504FF48050CDE90C64109003212F
:103090000CA8FFF7B9F8002801D072B6FEE712B00D
:1030A00070BD0000403802400070004005480168D3
:1030B00041F47001016003494FF0006080390860FD
:1030C0007047000088ED00E02DE9F0410C46D0F893
:1030D000C432D0F8BC12F9B104EB840200EB8202D6
:1030E000002695694DB1C4EBC40703EB87035B6C05
:1030F000B5FBF3F703FB175383B1C1F81462D0F8A3
:10310000C002D1F8085222460369284601F504712D
:1031100098470020BDE8F0810320FBE7002396617B
:103120001A46214600F079FCF3E770B5D0F8BC42AE
:1031300005466CB100F07DFBC4F80C02D5F8C01256
:10314000D4F80402CA6804F503719047002070BDEA
:10315000032070BD70B504460026812100F0C6FA38
:10316000002525870121204600F0C0FAA4F87851F7
:103170008221204600F0BAFAA4F84C50A4F84E5030
:10318000D4F8BC0248B1D4F8C00204F52F744068EA
:103190008047206801F0E0FB2560304670BD10B527
:1031A000D0E9AF4159B194F80002FF2807D08B68ED
:1031B00094F8012221469847FF2084F8000200205D
:1031C00010BD00000A2101800048704798000020CF
:1031D0004321018000487047E8000020432101801E
:1031E00000487047A4000020432101800048704738
:1031F0002C0100202DE9F04704464FF4077001F040
:1032000053FC05004FF0000735D0C4F8BC52207CB9
:103210004FF010084FF40079012680B340230222BA
:103220008121204600F04EFB268740230222012107
:10323000204600F047FBA4F87861A4F84E800823EC
:1032400003228221204600F03DFBA4F84C60D4F814
:10325000C00200688047C5F81472C5F81872207C57
:10326000D5F80422A8B140230121204600F036FB06
:103270000020BDE8F0870220C4F8BC72F9E7FFE740
:103280004B4602228121204600F01CFB26874B463C
:10329000CCE74B46E8E710B5D0F8BC1251B1027C40
:1032A000002AD1F8042207D04023012100F016FBA8
:1032B000002010BD032010BD4FF40073F5E719B1D5
:1032C000C0F8C0120020704703207047D0F8BC023D
:1032D000C0F8041200207047D0F8BC02C0F81022D9
:1032E000C0F80812002070472DE9FC410546D0F8CF
:1032F000BC7200208DF80000ADF804000646087886
:103300000C4610F0600121D020293DD1E288AAB1FD
:103310000006607807D5D5F8C0128B683946984703
:10332000E288394628E087F80002A07987F8010290
:10333000E2883946284600F06DF82AE0D5F8C01238
:10334000607800228B682146984722E0607830B18F
:1033500001281ED00A2809D00B2815D110E095F8B5
:103360009C02032810D1022201A905E095F89C02D5
:10337000032809D101226946284600F065F808E0D3
:1033800095F89C02032804D02146284600F037F81F
:1033900003263046BDE8FC8110B5D0F8BC120122EE
:1033A00019B1D1F8143213B10FE0032010BD01227E
:1033B000C1F81422D1F81022C262D1F81032D1F82B
:1033C0000822812100F029FB0022104610BD10B513
:1033D000D0F8B8220AB152689047002010BD1346B9
:1033E00010B50A46002100F079FA002010BD1346FE
:1033F00010B50A46002100F010FB002010BD10B5EA
:103400000446802100F0EEFA2046BDE8104000217D
:1034100000F0E8BA10B50323C0F85821C0F8943280
:10342000C0F85C2113460A46002100F057FA00203C
:1034300010BD10B505210023C0F894121A46194694
:1034400000F04CFA002010BD10B502238261C0F8D4
:103450009432C26113460A46002100F0DEFA0020D1
:1034600010BD10B504210023C0F894121A46194665
:1034700000F0D3FA002010BD10B50A46024903A09F
:1034800000F0E1F8004810BD74450020434443209B
:10349000436F6E666967000012200880004870471D
:1034A0004000002010B50A46024903A000F0CBF806
:1034B000004810BD7445002043444320496E7465A4
:1034C0007266616365000000042008800048704750
:1034D0003C00002010B50A46024903A000F0B3F8F2
:1034E000004810BD7445002053544D6963726F65E8
:1034F0006C656374726F6E696373000010B50A4681
:10350000024903A000F09FF8004810BD7445002058
:1035100053544D3332205669727475616C20436F79
:103520006D506F727400000010B51A2008800A48B0
:103530000168001D0468001D0068081809D00822F1
:103540000649FFF7F7FA0549042210312046FFF734
:10355000F1FA0248801E10BD107AFF1F56000020AD
:10356000F8B504460020ADF8000048880D46010A71
:1035700008295FD2DFE801F05E0409175E5E3C4572
:10358000D4F8B412207C0A6819E0207C02260028B6
:10359000D4F8B80205D0C16A68468847014646702B
:1035A00039E0816AF8E7C0B2062843D2DFE800F0CC
:1035B000030A1014181CD4F8B402426805E06946E6
:1035C00090471CE0D4F8B402826892B3207CF6E7FE
:1035D000D4F8B402C268F8E7D4F8B4020269F4E798
:1035E000D4F8B4024269F0E7D4F8B4028269ECE797
:1035F000207CF0B9D4F8B802416B68468847014690
:1036000009E0207CA8B9D4F8B802016B6846884765
:10361000014607204870EA888AB1BDF8000040B131
:10362000824200D90246ADF800202046FFF70CFF89
:10363000F8BDFFE729462046FFF7E1FEF8E7204600
:10364000FFF70FFFF4E770B5002300281ED0002518
:10365000044602E06D1CEDB2641C2678002EF9D100
:10366000022404EB450414801278CA545B1C032224
:10367000CA5400245B1C06E0CA545B1CDAB28C54AA
:10368000521CD3B2401C0278002AF5D170BD010053
:103690004FF0000004D0012901D0022901D00320FD
:1036A00070470120704730B4A0B1D0F8B842002371
:1036B0000CB1C0F8B832D0F8CC420CB1C0F8CC3262
:1036C00009B1C0F8B412012180F89C12027030BC1C
:1036D00000F0B4B830BC0320704710B5D0F8C40275
:1036E000FEF764F9BDE81040FFF7D1BF10B5D0F880
:1036F000C402FEF735F9BDE81040FFF7C8BF70B54A
:103700001646044649B1D4F8B80242691AB194F891
:103710009C02032842D0032070BDD4F894120025E7
:1037200004F11400022932D1D0E902318B4206D9CA
:103730005A1A826031462046FFF759FE0FE099423F
:1037400014D14068884211D3D4F8981288420DD21F
:10375000002211462046FFF74AFEC4F89852002383
:103760001A461946204600F0B9F810E0D4F8B8021D
:10377000C16829B194F89C02032801D120468847EA
:103780008021204600F02EF92046FFF752FE94F8E3
:10379000A002012806D184F8A05203E020469047F9
:1037A0000028B9D1002070BD10B51346044649B1B8
:1037B000D4F8B80282691AB194F89C02032824D084
:1037C000032010BDD4F8941204F5AA70032920D167
:1037D000D0E9021291420AD98A1A8260C0688242F4
:1037E00000D3024619462046FFF7F9FD11E0D4F850
:1037F000B802016929B194F89C02032801D120463E
:1038000088472046FFF72DFE03E02046904700281A
:10381000D7D1002010BD0020704710B5012180F8DD
:103820009C12D0F8B82212B152680179904700205A
:1038300010BDD0F8C402FEF7E7B8000010B501785B
:1038400039BB15490222C1F80404C0F8C4124FF074
:10385000A0400860042048600020C1E90320C1E9BD
:10386000062008624862C86208630846FEF7A6FBA5
:1038700008B1FCF732FE80210748FEF730F84022FD
:1038800000210548FEF72FF8802201210248FEF7AB
:103890002AF8002010BD0000745700200A0601F02D
:1038A0007F01D0F8C402C1EBC10100EB810002D559
:1038B00090F83E00704790F8FE0170470020704776
:1038C0000020704710B51C461346D0F8C4022246AB
:1038D000FEF7A3F8BDE81040FFF7D9BE10B5D0F849
:1038E000C402FEF7CAF8BDE81040FFF7D0BE70B5BD
:1038F0000125044680F89C520020C4F894026060C0
:10390000C4F8A402D4F8BC0228B1D4F8B80200214B
:103910004268204690470022402311462046FFF788
:10392000D1FF4026A4F8645133460022802120466E
:10393000C4F86061FFF7C6FFA5840020266270BD51
:1039400090F89C12042903D190F89D1280F89C12E3
:103950000020704710B590F89C12032904D1D0F8CC
:10396000B812C96901B18847002010BD0174002058
:10397000704710B5D0F8C402FEF7F2FBBDE8104066
:10398000FFF785BE70B5044600F2AA20054600F098
:103990004DF80120C4F89402B4F8B002C4F89802BB
:1039A00094F8AA0210F01F010AD001290ED00229B2
:1039B00012D000F080012046BDE8704000F012B83F
:1039C00029462046BDE8704000F0C2B8294620468E
:1039D000BDE8704000F0ECB929462046BDE87040D3
:1039E00000F040B910B5D0F8C402FEF76AF8BDE89F
:1039F0001040FFF74CBE10B5D0F8C402FEF7CBFB69
:103A0000BDE81040FFF743BE90F89C1280F89D126D
:103A1000042180F89C120020704710B5D0F8C40231
:103A2000FEF789F8BDE81040FFF731BE70B50546D6
:103A300011F8010B2870087868704C1C2046FFF7BD
:103A4000E2FA6880A41C2046FFF7DDFAA880A01CDB
:103A5000FFF7D9FAE88070BD38B504460020ADF80C
:103A6000000041B1C4F8B812896A68468847C4F8B2
:103A7000CC02002038BD032038BD02460320D2F816
:103A8000B832002B02D01B68104618477047000060
:103A90002DE9F0410F462C4E8978002504463170FF
:103AA000012906D939462046FFF7A9FC0320BDE8C5
:103AB000F08194F89C0202280CD003281DD03946CE
:103AC0002046FFF79CFC31782046FFF780FC032559
:103AD0002846ECE799B320466160FFF7CEFF05006A
:103AE00004D039462046FFF78AFCF1E72046FFF76D
:103AF000B8FC032084F89C02EAE74FF00208C1B149
:103B0000606888421BD0C1B22046FFF760FC317864
:103B100020466160FFF7B1FF050010D0394620460E
:103B2000FFF76DFC21792046FFF751FC84F89C8259
:103B3000CEE784F89C8220466160FFF748FC20466F
:103B4000FFF78FFCC4E7000094000020FFF753BF8D
:103B50002DE9F0410A78002512F0600208D0202AF1
:103B600001D0402A71D1D0F8B8229268904731E054
:103B70004B78002201260A2B67D2DFE803F0415E72
:103B80006658660805662D29FFF7EAFC5FE00446E3
:103B90008888D8B9C888C8B94888802816D200F063
:103BA0007F0794F89C02032810D084F89E7239464F
:103BB0002046FFF7DEFE2046FFF753FC1FB1022030
:103BC00084F89C0243E084F89C6240E020463CE09C
:103BD000FFF75EFF05463AE0CB88012B35D190F820
:103BE0009C32012B04D0022B02D0032B2DD104E0F8
:103BF0008260012200F1080116E00122011D13E09C
:103C000090F89C22012A03D0022A01D0032A1CD159
:103C1000CA88022A19D1C660D0F8A41209B10321BA
:103C2000C160022200F10C01FFF70EFC0FE0498891
:103C300001290CD1C0F8A46211E090F89C32012B4C
:103C400008D0022B06D0032B04D0FFF7D8FB284660
:103C5000BDE8F08149880129F9D1C0F8A422FFF715
:103C600000FCF4E72DE9F0410D46044628780027D2
:103C7000097910F060000BD0202801D0402873D1C2
:103C8000D4F8B802294682682046904707468CE05F
:103C90006878D8B3012822D0032865D194F89C0213
:103CA000022802D003287CD10BE0002979D080299A
:103CB00077D02046FFF796FE80212046FFF792FE40
:103CC00073E0688838B931B1802904D0E88810B928
:103CD0002046FFF787FE2046FFF7C3FB65E094F818
:103CE0009C020228E1D003285BD16888D8BB480633
:103CF00002D02046FFF7F1FC2046FFF7B2FBD4F8D4
:103D0000B80229468268204690474EE0FFE794F8C3
:103D10009C020026022802D0032842D111E009B1FA
:103D200080293ED1080601F07F0000EB800004EB03
:103D3000800101D5143101E001F5AA7102220E6063
:103D40002BE0080601F00F0000EB800004EB800080
:103D50000BD5808C40B101F07F0000EB800004EBBC
:103D6000800514350CE020E01BE0B0F86401C0B120
:103D700001F07F0000EB800004EB800505F5AA75DB
:103D800041B1802906D02046FFF788FD10B10120FF
:103D9000286000E02E60022229462046FFF754FBEF
:103DA00003E029462046FFF72AFB3846BDE8F081AC
:103DB00070B50646087800240D4610F0600003D068
:103DC000202801D0402817D196F89C02012803D062
:103DD000022801D003280FD1287901280CD8D6F861
:103DE000B8028268304690470446E888204306D1EE
:103DF0003046FFF736FB02E03046FFF700FB204677
:103E000070BD000070B50A78012302F00F054E78EE
:103E1000AB401B4CD0F81C58012E17D045EA034389
:103E2000C0F81C3800EB4210D0F8002B12040BD461
:103E3000D0F8002B0B89C978C3F30A031A4344EA6C
:103E400081410A43C0F8002B002070BD9BB21D4386
:103E5000C0F81C5800EB4210D0F800391B04F3D412
:103E6000D0F800390D89C978C5F30A0589042B43B8
:103E700041EA82510B432343C0F80039E4E70000D4
:103E800000800010D0F800196FF30A01C0F8001983
:103E9000D0F8041841F48071C0F80418002070476D
:103EA00070B5044606990A9E049D0D98012916D006
:103EB000E06840F04000E060204600F02BF8A16B85
:103EC0001EB321F48031A163012D07D1A16841F017
:103ED0000601A160A16841F02001A16070BDA16B45
:103EE00021F48031A163E168094A1140E160E16891
:103EF00021F44011E160012803D1E06840F4801012
:103F0000E060204600F006F8DEE741F48031DAE7B1
:103F1000BFFFBDFF01220C4902E0521C8A420BD8B0
:103F20000369002BF9DA026942F001020261012201
:103F300004E0521C8A4201D9032070470369DB0761
:103F4000F7D1002070470000400D030030B54C78D9
:103F50000A78012300EB4212012C2CD0D2F8004B3E
:103F6000002C0BDAD2F8004B44F00064C2F8004B8E
:103F7000D2F8004B44F08044C2F8004BD0F83C58D3
:103F80000C7804F00F0403FA04F425EA0444C0F8A2
:103F90003C48D0F81C48097801F00F018B4024EA16
:103FA0000341C0F81C18D2F8000B19490840C2F8A8
:103FB000000B002030BDD2F80049002C0BDAD2F8FB
:103FC000004944F00064C2F80049D2F8004944F0C6
:103FD0008044C2F80049D0F83C480D7805F00F0540
:103FE00003FA05F5ADB2AC43C0F83C48D0F81C4824
:103FF000097801F00F018B4099B28C43C0F81C483E
:10400000D2F8000903490840C2F80009D1E70000CE
:104010000078F3EF007833ECD0F8001E21F00301B4
:10402000C0F8001ED0F8041821F00201C0F80418EE
:1040300000207047D0F8001E21F00301C0F8001ED8
:10404000D0F8041841F00201C0F8041800207047AD
:104050002DE9F04F00250E460446DDF82CC0DDF8B2
:1040600024B0109F2846294604EB8002C2F80411B0
:10407000401C0F28F8D32046C7B1806B20F40012F3
:10408000A263A06B40F40022A26308468846C4F8ED
:10409000000ED4F800182046C4F80018BCF1010F37
:1040A00016D0D0F8001841F0030116E0D0F804084B
:1040B00040F00202C4F80428A06B40F40012A2638E
:1040C000A06B20F40022A263A06B20F48022DBE727
:1040D000D0F800180BB141F00101C0F80018102110
:1040E00000F090FA00B10125204600F07BFA00B103
:1040F00001254046C4F81088C4F81488C4F81C8808
:1041000000214FF000694FF0904A4FF67F3314E0E2
:1041100004EB4112D2F800C9BCF1000F06DA11B16C
:10412000C2F800A904E0C4F8009901E0C2F800094F
:10413000C2F81009C2F80839491C8E42E8D800219B
:1041400015E000BF04EB4112D2F800CBBCF1000F28
:1041500006DA11B1C2F800AB04E0C4F8009B01E03C
:10416000C2F8000BC2F8100BC2F8083B491C8E4283
:10417000E8D8D4F8101821F48072C4F81028A0618F
:104180006FF080406061BBF1000F03D1A06940F087
:104190001000A061A06909490843A0610C9818B1FA
:1041A000A06940F00800A061012F03D1A069044973
:1041B0000843A0612846BDE8F08F000000383C802D
:1041C00004000040816821F00101816000207047F7
:1041D00070B50D784E78434CEBB200EB4313012ED3
:1041E0001FD0D3F8100B6FF31200C3F8100BD3F8E5
:1041F000100B2040C3F8100B486908B1886848616B
:10420000D3F8100B40F40020C3F8100BD3F8100BB8
:104210008C68C4F312042043C3F8100B012A55D054
:1042200058E04E69002ED3F8106932D06FF31206B1
:10423000C3F81069D3F810692640C3F810694E69B5
:104240008C68A64200D94C61D3F8104944F400248C
:10425000C3F81049D3F810494E69C6F31206344327
:10426000C3F81049012A22D000EB4512D2F80039D8
:1042700043F00443C2F800394A6932B3D0F8342815
:10428000097801F00F03012199400A43C0F834284E
:1042900026E02640C3F81069D3F8104944F40024FE
:1042A000C3F81049D3F810496FF31204D8E709692D
:1042B00019B100EB4512C2F8141900EB4510D0F803
:1042C000001941F00441C0F8001909E0C86808B1BC
:1042D000C3F8140BD3F8000B40F00440C3F8000BF4
:1042E000002070BDFFFF07E010B5036C134CA34224
:1042F00003D9D0F8003B002B1EDB0023C0F8103B95
:10430000D0F8103B43F40023C0F8103BD0F8103B2A
:1043100043F01803C0F8103BD0F8103B43F0C04303
:10432000C0F8103B012907D1C0F8142BD0F8001BAE
:1043300041F08021C0F8001B002010BD0A30544F0E
:104340004A780B78012A00EB43100BD0D0F8002BF1
:1043500022F40012C0F8002BC978032914D00229D6
:1043600012D017E0D0F8002922F40012C0F800297A
:10437000C978032901D002290CD1D0F8001941F0E5
:104380008051C0F8001905E0D0F8001B41F08051C1
:10439000C0F8001B002070470A784B78D1B200EBC0
:1043A0004110012B12D0D0F8001B002906DB2AB1E6
:1043B000D0F8001B21F08041C0F8001BD0F8001B92
:1043C00041F40011C0F8001B00207047D0F800191C
:1043D000002906DB2AB1D0F8001921F08041C0F88D
:1043E0000019D0F8001941F40011C0F80019EBE7EA
:1043F000F8B50C784F78774DE3B26FF0604600EB7C
:104400004313012F26D0D3F8104B6FF31204C3F8D7
:10441000104BD3F8104B2C40C3F8104B4C69002CB8
:1044200074D08D682C44641EB4FBF5F4D3F8105B93
:10443000A4B206EAC4463543C3F8105BD3F8105B58
:104440008E686643C6F312042543C3F8105B012A45
:1044500071D0A6E04F691FB3D3F810796FF312073C
:10446000C3F81079D3F810792F40C3F810794F6949
:104470008D682F447F1EB7FBF5F506EAC545D3F8D6
:1044800010693543C3F81059D3F810594E69C6F373
:1044900012063543C3F81059CD78012D10D01BE01A
:1044A000D3F810692E40C3F81069D3F8105945F4B9
:1044B0000025C3F81059D3F810596FF3120509E01D
:1044C000D3F8105925F0C045C3F81059D3F8105946
:1044D00045F00055C3F81059012A18D000EB4413D9
:1044E000D3F8004944F00444C3F80049CC78012CC7
:1044F0002FD04A6962B3D0F83428097801F00F034D
:10450000012199400A43C0F8342860E036E00A6986
:104510001AB100EB4413C3F81429C97801290FD14B
:10452000D0F80818C90500EB4411D1F8002903D4CC
:1045300042F0005202E030E042F08052C1F800291F
:1045400000EB4410D0F8001941F00441C0F8001904
:104550003DE0D0F80848E405D3F8004902D444F01F
:10456000005401E044F08054C3F8004900928A8A64
:1045700093B20A78C96800F03FF928E0D3F8104BED
:104580008D68C5F312052C43C3F8104BD3F8104BBC
:1045900044F40024C3F8104B59E7CA680AB1C3F8C1
:1045A000142BC97801290CD1D0F80808C005D3F81C
:1045B000000B02D440F0005001E040F08050C3F8FE
:1045C000000BD3F8000B40F00440C3F8000B0020B0
:1045D000F8BD0000FFFF07E0816841F00101816044
:1045E00000207047002110220261054A491C9142B7
:1045F00001D9032070470369DB06F7D40020704718
:10460000400D03000022202343EA81110161054986
:10461000521C8A4201D90320704703699B06F7D4D4
:1046200000207047400D0300D0F8080810F0060085
:1046300004D0022803D0062801D00F2070470220A2
:104640007047406900F001007047D0F81818D0F8A2
:104650001C08084080B27047D0F81818D0F81C0821
:104660000840000C704710B5D0F81038D0F8342846
:1046700001F00F0400EB4110E24002F00102D0F81B
:10468000080943EAC212104010BD00EB4111D1F8F5
:10469000081BD0F814080840704741698069084039
:1046A0007047D21C10B59308002200F5805002E03C
:1046B0000468521C10C19A42FAD3084610BD10B5C6
:1046C000C26822F0C042C260012902D029B1012093
:1046D00010BDC16841F0005102E0C16841F0804165
:1046E000C1603220FCF7DEFE002010BDD0F80028AB
:1046F00022F4FE62C0F80028D0F800284FF4FE63D0
:1047000003EA01110A43C0F80028002070470000A6
:10471000022A3ED1264A274B0A449A4201D20F214F
:1047200038E0254A254B0A449A4201D20E2131E055
:10473000234A244B0A449A4201D20D212AE0224AFC
:10474000224B0A449A4201D20C2123E0204A214BF9
:104750000A449A4201D20B211CE01F4A1F4B0A4413
:104760009A4201D20A2115E01D4A1E4B0A449A4280
:104770000FD31D4A1D4B0A449A4201D2082109E079
:104780001B4A11441B4A914201D2072102E0062133
:1047900000E00921C26822F47052C260C2684FF47E
:1047A000705303EA81210A43C26000207047000071
:1047B000405327FF00350C00401E1BFF40420F00F6
:1047C00000DC0BFF804F1200808CF9FE20D6130016
:1047D00060B6E5FE60E3160000D3CEFE40771B0016
:1047E000C05BB3FEC091210000CA91FE2075380065
:1047F000E05459FEE09C410010B5029C64B9DB1CFA
:104800009C0800EB0230002300F5805002E004C950
:1048100002605B1CA342FAD3002010BDFEE709072B
:10482000090E002804DB00F1E02080F80014704736
:1048300000F00F0000F1E02080F8141D704702E046
:1048400008C8121F08C1002AFAD17047704700201B
:1048500001E001C1121F002AFBD1704710B5074CBF
:10486000207828B1022802D100202070606010BD9D
:10487000607800F0D5F90120207010BD10000020F4
:10488000F8B5044690F82400069E01282ED0012099
:1048900084F82400022084F825002068056845F487
:1048A000804505602068056825F0020505602068E0
:1048B00005680D4305600025A5622563A16B0C48C2
:1048C000C863A16B0B484864A16B0B48C864009691
:1048D0002168A06B2831FBF7D9FF2068016841F0FF
:1048E0000101016084F824500020F8BD0220F8BDC9
:1048F000D5030008FD030008F903000870B505465C
:1049000000244FF47A7603E0304600F005F8641C8A
:10491000AC42F9D370BD000070B54FF0E023002128
:104920005D690B4A0B4C1268B2FBF4F49A6944437C
:1049300098699042FCD002D2A2EB000202E0A5EB03
:104940000006324411440246A142F1D370BD00007A
:104950009000002040420F0010B5002821D0114BDC
:104960000022001F196803E0814203D80A46496803
:104970000029F9D152B11368841A9C4204D100680D
:1049800018441060104602E0506000E0186039B131
:1049900002680B1A934203D10B681A4402604968FB
:1049A000416010BDA80100200549044802220860AA
:1049B0008A80083108600120888070470004024026
:1049C0000000002008B5FCF7F7FEFEF723FBFEF71A
:1049D00035F9FEF7E5F8FEF7E9F9FEF7C7F8FEF757
:1049E000F5F8FFF7E1FF01212848FDF7EDFE012171
:1049F0002748FDF7E9FE4FF47A70FFF77FFF00F0DC
:104A000089F82448FEF76EF82248FEF70DF8F020EA
:104A100000904FF4A073002204211E48FEF718F8FE
:104A20004FF400601C4B0090A3F5005200211B487E
:104A3000FFF726FF1A4C20780128FCD1194B0025DE
:104A400061682A46D1B10020461E06EB810119E0BB
:104A50001E5CFF2E15D11E187678D82E02D0D92EC6
:104A600003D00EE0024601250BE055B1801A801CF0
:104A700004D081B20B481044FBF78AFC022020705E
:104A8000D9E7401C8142E3D8F8E70000000000208D
:104A900008000020B0010020D0210020D0410020DB
:104AA0001000002000401FC0F0B50B30154D20F065
:104AB00007010024144A0FE003688B420BD38B429A
:104AC00005D95E1A43184768C3E9006700E04368E8
:104AD000136002C004E0021D10680028ECD12046DB
:104AE000002802D1286808B10020F0BD064A074816
:104AF0001060074A121A22F00702C0E900240120C0
:104B00002860D7E7AC010020A8010020845B0020CA
:104B1000806100201B4810B5194941601A49816025
:104B20001A49C1601A4901611A4941611A498161F2
:104B30001A49C161FDF746FF45F240641148FDF78F
:104B40002FFFA042FAD1022243F216010D48FDF7D1
:104B5000F2FE022243F21C010A48FDF7ECFE43F28A
:104B60001904022221460748FDF7E5FE3220FFF72F
:104B7000C5FE2146BDE8104000220248FDF7DBBE1D
:104B8000B14B0008B0010020A14B0008C14B000848
:104B9000DD4B0008D14B0008ED4B00081949000817
:104BA000024620210148FCF7F3BD0000001C024032
:104BB00002464FF400410148FCF7EABD0000024004
:104BC000024610210148FCF7E3BD0000000402404A
:104BD00008210148FCF7D0BD00040240024608212C
:104BE0000148FCF7D5BD00000004024010B586B0B6
:104BF000044614216846FBF73FFB08200090012083
:104C00000290022003900CB1012000E000200190EE
:104C100069460248FCF7C6FC06B010BD000402401D
:104C200030B50C4A0A490C4C536804EB403001EB98
:104C3000830300214FF4006450F8215043F82150C1
:104C4000491CA142F8D3506800F50060506030BDA7
:104C500000401FC010000020D001002000061016E8
:104C6000000610160000000000000000010203040E
:104C700006070809004330001F50000035302100AE
:104C800036306900073C07002038460021382000F4
:104C900014381100153811000038000001380000E8
:104CA000023800000338000004380A0005383F00CD
:104CB0000638070007389F000838020009388000CE
:104CC0000A3801000B38E0000C380B000D381C00CE
:104CD0000E3807000F38B0001338040018360400EF
:104CE00012362B00093712000C3700000440060072
:104CF000023000000630FF001347030007440100A4
:104D00000B4635000C4622003748160024380200B6
:104D10000150A3000335000000436F001F50010045
:104D20003530410036306900073C07002038460026
:104D300021380000143831001538310000380000E7
:104D400001380000023800000338000004380A006F
:104D500005383F00063806000738A9000838050066
:104D6000093800000A3802000B38D0000C38050062
:104D70000D38F8000E3803000F3884001338040093
:104D80001836000012362900093752000C3703008C
:104D9000023A0200033AE000143A0200153AE00039
:104DA0000440020002301C000630C3001347030019
:104DB000074404000B4637000C4620003748160015
:104DC000243804000150A3000335000008304200DD
:104DD000033103001730FF001830FF0034301A0091
:104DE00037301300083101003036360031360E00FE
:104DF0003236E200333612002136E0000437A000DC
:104E000003375A0015377800173701000B37600059
:104E100005371A00053902000639100001390A0069
:104E20003137120000360800013633002D306000A3
:104E3000203652001B3720001C475000133A430015
:104E4000183A0000193AF8003536130036360300D8
:104E50003436400022360100013C3400043C280076
:104E6000053C9800063C0000073C0800083C000098
:104E7000093C1C000A3C9C000B3C40001038000020
:104E80001138100012380000083764000140020099
:104E900005401A00003000000430FF000E305800BA
:104EA0002E300000004330001F5000000E44000070
:104EB0000050A7000F3A3000103A28001B3A30008B
:104EC0001E3A2600113A60001F3A140000582300D1
:104ED0000158140002580F0003580F000458120024
:104EE0000558260006580C00075808000858050009
:104EF000095805000A5808000B580D000C58080006
:104F00000D5803000E5800000F5800001058030001
:104F100011580900125807001358030014580000D4
:104F200015580100165803001758080018580D00AE
:104F3000195808001A5805001B5806001C5808008C
:104F40001D580E001E5829001F5817002058110028
:104F500021581100225815002358280024584600D3
:104F6000255826002658080027582600285864008F
:104F7000295826002A5824002B5822002C58240097
:104F80002D5824002E5806002F582200305840007B
:104F90003158420032582400335826003458240037
:104FA0003558220036582200375826003858440019
:104FB000395824003A5826003B5828003C584200F3
:104FC0003D58CE008051FF008151F2008251000017
:104FD0008351140084512500855124008651090015
:104FE0008751090088510900895175008A51540080
:104FF0008B51E0008C51B2008D5142008E513D002A
:105000008F515600905146009151F8009251040082
:10501000935170009451F0009551F00096510300A7
:105020009751010098510400995112009A510400BF
:105030009B5100009C5106009D5182009E513800FA
:1050400080540100815408008254140083542800C5
:1050500084545100855465008654710087547D0046
:1050600088548700895491008A549A008B54AA006E
:105070008C54B8008D54CD008E54DD008F54EA005E
:1050800090541D0081531E0082535B00835308001F
:1050900084530A0085537E008653880087537C0022
:1050A00088536C00895310008A5301008B53980079
:1050B0008055060083554000845510008955100026
:1050C0008A5500008B55F8001D5040000053080021
:1050D0000153300002531000035300000453080032
:1050E0000553300006530800075316000953080003
:1050F0000A5330000B5304000C53060025500000E7
:10510000083002004047210028510008000000201C
:10511000B0010000F0020008EC510008B0010020CE
:10512000D06300004E48000801201399341B08C9C1
:10513000041AD5041AFD041329351B0879081AA589
:105140000417040309041201140202021640830426
:105150004057260201020301031A1A031351031BCD
:10516000084D041A49041A75041A8D041933118262
:10517000105324F4130A0632022A401C1C0902436D
:105180005B1125C03209041B01020B130524161004
:105190000105240110090104240202052406170157
:1051A00007058203081C10090491320A1D07050136
:1051B00002432C070581070938442A40072A810742
:1051C000112B0907440A3B044413F5311B0855040D
:1051D00013E93242081A9F0C13C9301B082B08C16F
:0C51E0001ADD102AD12819049AC51C0001
:04000005080001AD41
:00000001FF
