:020000040800F2
:10000000A0340020C1010008F31A000851190008AB
:10001000F11A0008470300088934000800000000B6
:10002000000000000000000000000000711C00083B
:10003000BD030008000000006F1C00087D1C0008C4
:10004000DB010008DB010008DB010008DB01000820
:10005000DB010008DB010008DB010008DB01000810
:10006000DB010008DB010008DB010008DB01000800
:10007000DB010008DB010008DB010008DB010008F0
:10008000DB010008DB010008DB010008DB010008E0
:10009000DB010008DB010008DB010008BF030008EA
:1000A000DB010008DB010008DB010008DB010008C0
:1000B000DB010008DB010008DB010008DB010008B0
:1000C000DB010008DB010008DB010008DB010008A0
:1000D000DB010008DB010008DB010008DB01000890
:1000E000DB010008DB010008DB010008DB01000880
:1000F000DB010008DB010008DB010008DB01000870
:10010000DB010008DB010008DB010008DB0100085F
:10011000DB010008DB010008DB010008DB0100084F
:10012000DB010008DB010008DB010008DB0100083F
:10013000DB010008DB010008DB010008DB0100082F
:10014000DB010008DB010008DB010008F51A0008EC
:10015000DB010008DB010008DB010008DB0100080F
:10016000DB010008DB010008DB010008DB010008FF
:10017000DB010008DB010008DB01000800000000D3
:10018000DB010008DB010008DB010008DB010008DF
:10019000DB010008DB010008DB010008DB010008CF
:1001A000DB010008DB010008DB010008DFF80CD0F0
:1001B00000F08CF80048004791350008A03400207A
:1001C0000648804706480047FEE7FEE7FEE7FEE7F1
:1001D000FEE7FEE7FEE7FEE7FEE7FEE7191D000883
:1001E000AD0100082DE9F05F0546002092469B46D0
:1001F00088460646814640241BE02846414647463D
:10020000224600F053F853465A46C01A914110D383
:1002100011461846224600F03AF82D1A67EB0108FD
:100220004F4622460120002100F031F817EB00096B
:100230004E41201EA4F10104DFDC484631462A4627
:100240004346BDE8F09F40EA01039B0703D009E065
:1002500008C9121F08C0042AFAD203E011F8013BB2
:1002600000F8013B521EF9D27047D2B201E000F80B
:10027000012B491EFBD270470022F6E710B513464A
:100280000A4604461946FFF7F0FF204610BD202A13
:1002900004DB203A00FA02F1002070479140C2F1DD
:1002A000200320FA03F3194390407047202A04DB0F
:1002B000203A21FA02F00021704721FA02F3D040DF
:1002C000C2F120029140084319467047064C074D81
:1002D00006E0E06840F0010394E807009847103416
:1002E000AC42F6D3FFF766FF103C0008303C000834
:1002F00070B58C1810F8015B15F0070301D110F8E8
:10030000013B2A1106D110F8012B03E010F8016B14
:1003100001F8016B5B1EF9D12B0705D40023521E97
:100320000DD401F8013BFAE710F8013BCB1A921CFF
:1003300003E013F8015B01F8015B521EF9D5A142FD
:10034000D8D3002070BDFEE7002070470020704722
:1003500010B500220449054801F0F4FD04490348A2
:1003600001F0EAFD002010BD981E0020C8110020F9
:100370009816002010B50146034801F0DDFD024843
:1003800001F0BFFD002010BDC81100200020704703
:10039000094A10B5D2F8BC22D2F814220AB10120C1
:1003A00010BD0A460146044801F0CCFDBDE81040EE
:1003B000014801F027BE0000C8110020704710B5A9
:1003C000402000F043F8BDE81040802000F03EB827
:1003D00072B6FEE770B5044600F040F90546601CB1
:1003E00002D004480078044400F038F9401BA042D1
:1003F000FAD370BD7C00002070B5114D114C40281F
:1004000011D080280ED1104801F008F92078012180
:1004100005EBC020FFF7BCFF207870B100202070F2
:100420000020606070BD2078616805EBC0226130FB
:100430005054491CC1F30A00F3E70120EFE7000024
:10044000C80100201000002000000020044910B561
:100450000A68024202D00860FFF7CEFF10BD00001C
:10046000143C01402DE9F84F00224FF0010803250C
:100470004FF00F0E0B6808FA02F42340A3426ED12E
:100480004E68012E05D0022E03D0112E01D0122E5F
:1004900012D186684FEA420C05FA0CF7BE43CF68CA
:1004A00007FA0CF7374387604668A6430C79C4F314
:1004B0000014944034434460C668570005FA07FCB2
:1004C0008C6826EA0C06BC403443C4604C68022C9D
:1004D00001D0122C13D1D40800EB8404A346D4F825
:1004E000209054074FEAD46A0EFA0AF629EA060960
:1004F0000E6906FA0AF646EA0906CBF82060046897
:100500000E7924EA0C0406F00306BE40264306607A
:100510004C68E4006FD53B4C266846F48046266064
:10052000246822F0030604F480440094364C3444DA
:10053000A446D4F808489607360F0EFA06F7BC43CF
:10054000324FB84201D100272EE0314FB84201D1DD
:10055000012729E02F4FB84202D1022724E04AE0C8
:100560002D4FB84201D103271EE02C4FB84201D1D4
:10057000042719E02A4FB84201D1052714E0294F7A
:10058000B84201D106270FE0274FB84201D1072713
:100590000AE0264FB84201D1082705E0244FB842AF
:1005A00001D1092700E00A27B7402743CCF8087893
:1005B000204E34684F689C43FF0300D51C433460D1
:1005C0001C4E361D34684F689C43BF0300D51C4346
:1005D0003460184E083634684F689C43FF0200D5DB
:1005E0001C433460134E0C3634684F689C43BF0282
:1005F00000D51C433460521C102AFFF43BAFBDE809
:10060000F88F0000443802400030014000000240F2
:100610000004024000080240000C024000100240AA
:100620000014024000180240001C0240002002405A
:1006300000240240003C01400069084000D0012035
:100640007047426931EA020200D1090481617047B2
:100650000AB1816170470904FBE700000148806826
:10066000704700007C000020024881680278114435
:10067000816070477C0000200B4810B5016841F490
:1006800000710160016841F480610160016841F41A
:1006900080710160032000F07FF8002000F006F870
:1006A00000F024F8002010BD003C024070B50D4D54
:1006B00004464FF47A712878B1FBF0F00A490968D2
:1006C000B1FBF0F000F090FF48B9102C07D20022E7
:1006D0002146501E00F040F800206C6070BD0120E3
:1006E00070BD00007C000020880000200A4808B58A
:1006F000016841F480410160006800F4804000908E
:100700000548001F016841F080510160006800F059
:100710008050009008BD00004438024000280DDBE6
:1007200000F01F02012191404009800000F1E0200B
:10073000C0F88011BFF34F8FBFF36F8F7047002851
:1007400009DB00F01F02012191404009800000F107
:10075000E020C0F800117047F0B40E4B1B680C4647
:10076000C3F30223C3F10705042D00D90425191D85
:10077000072901D2002300E0DB1E012606FA05F15D
:10078000491E214099409E40761E16403143F0BCE0
:1007900002F07BBE0CED00E0064900F0070208689D
:1007A0004FF6FF03184040EA0220034A1043086056
:1007B000704700000CED00E00000FA05704700688B
:1007C000416200207047F0B50368586A39B19C6AED
:1007D0004FF4827600EB144400204D1E0AE040EAFC
:1007E000024098620FE006EB8007DF59401C04EBE3
:1007F0001744C0B2A842F6D344EA02404FF48072D4
:1008000002EB810158500020F0BDD0F8040401F043
:1008100038BEC1EBC10200EB8202D0F80404926C36
:1008200001F0A3BDC1EBC10200EB8202D0F80404C9
:10083000D2F8082201F0EEBDD0F8040401F023BE86
:1008400070B504460B0601F00F00C0EBC00104EBCD
:1008500081014FF001024FF0000503D581F83D20E2
:100860003C3103E081F8FD5101F5FE71087094F808
:10087000BC03012808D084F8BC23206802F09CF94E
:1008800084F8BC53002070BD022070BD70B50446D2
:1008900001F00F006268904201D9012070BD0B0683
:1008A00001F00F01C1EBC10104EB81014FF0010226
:1008B0004FF0000503D581F83D203C3103E081F87D
:1008C000FD5101F5FE718D70087094F8BC0301288C
:1008D00008D084F8BC23206802F068FB84F8BC537D
:1008E000002070BD022070BD01F00F01C1EBC101FD
:1008F00000EB8100D0F8140270472DE9F041044666
:100900000F0601F00F00C0EBC00104EB81014FF0B6
:1009100001064FF0000503D581F83D603C3103E04E
:1009200081F8FD5101F5FE7108708A60CB704A783C
:1009300002B1C880022B00D10D7194F8BC030128CC
:1009400009D084F8BC63206802F092F8284684F845
:10095000BC53BDE8F0810220FBE770B50C4601F006
:100960000F05C5EBC50100EB8101C1F81032C1F8DC
:1009700008220023C1F8143281F8FD3181F8FC51BE
:10098000036901F5FE71012B00D10A612207027C87
:10099000006803D002F062FB002070BD02F04EFA46
:1009A000FAE770B504460D4601F00F006168884211
:1009B00001D9012070BD29064FF000064FF0010259
:1009C00007D5C0EBC00104EB810181F83D203C312B
:1009D00007E0C5EBC50104EB810181F8FD6101F57C
:1009E000FE718A70087094F8BC03012807D084F85F
:1009F000BC23206802F006FB280702D007E0022093
:100A000070BD217C04F57172206802F0A3FA84F8AD
:100A1000BC63002070BD70B50C4601F00F05C5EB3E
:100A2000C50100EB81010B658A6400234B6501233E
:100A300081F83D3001F83C5F0369012B00D10A6168
:100A40002207027C006803D002F008FB002070BD82
:100A500002F0F4F9FAE700002DE9FC5F05680446AE
:100A6000284602F024FC00287ED1206802F04BFCCE
:100A7000002879D0206802F046FC800704D5216860
:100A8000486900F002004861206802F03CFCC106A1
:100A900004F57170009034D52068816921F010014F
:100AA00081612F6A07F00F00C0EBC00004EB8006E5
:100AB000C7F3434006F5FE76022802D0062811D07F
:100AC0001AE047F6F070074216D0C7F30A1217462D
:100AD0002846F16802F01BFCF0683844F060B06909
:100AE000384408E008222846009902F010FCB0695A
:100AF000C7F30A110844B0612068816941F0100110
:100B00008161206802F0FFFB00034FF0010A4FF003
:100B1000080B5BD50026206802F0D4FB0746DFF8FF
:100B2000689351E0F8074DD0F1B2206802F0E3FB82
:100B30008046C00707D005EB4611C1F808AB314627
:100B4000204600F0DDFF5FEA087022D505EB461174
:100B5000C1F808BB2068016C00EB46100191D0F889
:100B6000082B494507D900E08BE1110403D54FF468
:100B70000041C0F8081B204600F076FA019848456D
:100B800007D92069012804D120680121009A02F0C8
:100B9000E1F95FEAC86004D505EB46111020C1F801
:100BA000080B5FEA886004D505EB46112020C1F8E8
:100BB000080B5FEA884005D505EB46104FF400515D
:100BC000C0F8081B7F08761C002FABD1206802F00C
:100BD0009AFB40034FF000095CD5206802F06BFBE4
:100BE0000746002654E0F80750D0F1B2206802F022
:100BF00070FB8046C00723D006F00F020AFA02F00D
:100C0000D5F834288243C5F8342805EB4610C0F8DF
:100C100008A9206901280FD1C6EBC60004EB8000AB
:100C2000D0E911211144816436B9206D20B92068C2
:100C30000121009A02F08EF9F1B22046FFF7E9FD9A
:100C40005FEA087003D505EB4611C1F808B95FEA01
:100C5000C86004D505EB46111020C1F808095FEA09
:100C6000486004D505EB46114020C1F808095FEA49
:100C7000887004D505EB46110220C1F808095FEA27
:100C8000086003D53146204600F0A0FF7F08761C9F
:100C9000002FA8D1206802F036FB002811DAD5F821
:100CA000040820F00100C5F8040894F8F4030128B2
:100CB00029D0204600F0BCF92068416901F00041CC
:100CC0004161206802F01FFB00050BD5D5F808082C
:100CD000C00702D0204600F0EFF92068416901F416
:100CE00000614161206802F00EFBC00468D5D5F8B0
:100CF000040820F00100C5F804081021206802F063
:100D0000B7FA002127E084F8F49300212046FFF78A
:100D100055FDD1E705EB41104FF67F32C0F80829A9
:100D2000D0F8003923F40013C0F80039D0F80039A6
:100D300043F00063C0F80039C0F8082BD0F8002B4E
:100D400022F40012C0F8002BD0F8002B42F0006211
:100D5000C0F8002B491C60688842DBD8D5F81C0815
:100D600040F00110C5F81C08206B60B1D5F884086C
:100D700040F00B00C5F88408D5F8440840F00B009B
:100D8000C5F844080CE0D5F8141842F22B000143D2
:100D9000C5F81418D5F8100840F00B00C5F8100875
:100DA000D5F8000820F4FE60C5F80008217C206812
:100DB000009A02F0CFF82068416901F48051416146
:100DC000206802F0A0FA800415D5206801F090FE9A
:100DD000206802F05FFAE06000F020FA0146227B12
:100DE000206802F0CBFA204600F00CF92068416937
:100DF00001F400514161206802F085FA000707D52F
:100E0000204600F019F92068416901F008014161AC
:100E1000206802F078FAC00208D50021204600F0D0
:100E200035F82068416901F480114161206802F0C1
:100E30006AFA800208D50021204600F02BF82068CD
:100E4000416901F400114161206802F05CFA400040
:100E500007D52046FFF7D9FC2068416901F08041A1
:100E60004161206802F04FFA40070AD520684568C2
:100E7000680702D52046FFF7DFFC20684168294358
:100E80004160BDE8FC9F00000A30544FD0F80404D4
:100E900001F04ABBD0F8040401F048BB2DE9F04151
:100EA0008AB0040005D094F8BD032668002520B15F
:100EB00008E001200AB0BDE8F08184F8BC53204668
:100EC00000F05EF8032084F8BD03F06BC00500D489
:100ED0002561206801F0ACFF04F11001282288464A
:100EE0006846FFF7B0F994E80F0001F00FFE022604
:100EF000C8BB0021206802F018FA002001270EE08C
:100F0000C0EBC00104EB810181F83D7001F83C0F9A
:100F1000C880CD708D60CD60401CC0B24D616168ED
:100F20008142EDD8002011E0C0EBC00104EB81014B
:100F300081F8FD5181F8FC0181F8FF51C1F804529C
:100F4000C1F80852401CC0B2C1F810526168814219
:100F5000EAD8282241466846FFF775F994E80F0061
:100F600001F0ACFE10B184F8BD63A2E784F83850FC
:100F700084F8BD73206801F093FE00209AE700001A
:100F800010B586B0044614216846FFF775F920684D
:100F9000B0F1A04F2FD119480021026842F00102A0
:100FA0000260006800F0010005904FF4C05000900E
:100FB0000220CDE90101032003900A200490694634
:100FC0000F48FFF74FFA0D48001D016841F08001FE
:100FD00001600A481430016841F4804101600068F2
:100FE000002200F48040059011464320FFF7B4FB37
:100FF0004320FFF7A4FB06B010BD000030380240CC
:101000000000024070B50446C068012570B1022896
:1010100001D0FFF7DDF92946D4F8040401F0DCFA29
:10102000D4F80404BDE8704001F097BA0025F2E757
:10103000D0F8040401F0BABAD0F8040401F0C0BA40
:1010400010B5044690F8BC0301280BD0012084F8A9
:10105000BC0384F83810206802F07EF9002084F880
:10106000BC0310BD022010BDD0F8042400F571713E
:10107000104601F0BDBA10B50446006894F8BC13E0
:10108000012906D0012184F8BC13A16A012902D0EC
:1010900008E0022010BDA169012903D0816B41F451
:1010A00080318163206802F0CDF8206801F0EAFD0C
:1010B000002084F8BC0310BD10B50446D0F8040429
:1010C00001F0D8FA2068D0F8001E41F00101C0F804
:1010D000001E206A002804D00248016841F0060181
:1010E000016010BD10ED00E02DE9F0470E4605004F
:1010F00065D0DFF81481D8F80000F7B200F00F00D7
:10110000B04207D288F80070D8F8000000F00F0055
:10111000B04254D128683D4C810712D5400703D511
:10112000206840F4E05020602878000703D520684C
:1011300040F4604020602068A96820F0F000084377
:1011400020602878C0072DD0304968680839012808
:1011500012D0022813D0032811D00968890700296A
:101160002DDA216821F0030101432160FFF776FAAF
:10117000814641F2883A0EE009688903EFE7096881
:101180008901ECE7FFF76AFAA0EB0901514502D9A2
:101190000320BDE8F0872068696800F00C00B0EB20
:1011A000810FEFD1D8F80010404601F00F01B14295
:1011B00007D90770006800F00F00B04201D001208D
:1011C000E7E72878400705D52068E96820F4E05073
:1011D000084320602878000706D52068296920F494
:1011E000604040EAC100206000F01EF82168084A13
:1011F000C1F30311515CC840064908600648006805
:10120000FFF754FA0020C4E7003C024008380240CF
:101210006C3700088800002080000020014800682A
:101220007047000088000020154810B5006810F0D5
:101230000C02144813D01449042A0FD0082A0ED1E6
:101240000F4C241F2268236802F03F025B0207D57F
:101250002068C0F38810A0FB010106E0084610BD1D
:101260002168C1F38811A1FB00010023FEF7BAFF3A
:101270002168C1F30141491C4900B0FBF1F010BDE8
:10128000083802400024F40040787D012DE9F84F31
:1012900004006ED02078DFF83C93C007A9F1040564
:1012A0004AD009F104000168C1F38101012908D085
:1012B0000068C0F3810002280AD1D9F8000040027A
:1012C00006D52868800337D560680028E1D033E070
:1012D0006068B0F5803F10D0B0F5A02F286810D01E
:1012E00020F480302860286820F48020286060681E
:1012F000A8B1FFF7B3F906460DE0286840F4803046
:10130000F4E740F480202860F7E700BFFFF7A6F974
:10131000801B642873D828688003F7D50CE0FFF79A
:101320009DF9064605E000BFFFF798F9801B642889
:10133000F0D828688003F7D42078DFF89C828007F3
:101340004FF0000A3ED5A348001D016811F00C0FB4
:1013500008D00068C0F3810002280BD1D9F8000042
:10136000400207D42868800716D5E068012800D11C
:1013700012E02BE1E068B8B10120C8F80000FFF7E7
:101380006DF9064605E000BFFFF768F9801B0228EB
:10139000C0D828688007F7D52868216920F0F800B0
:1013A00040EAC10028600DE0C8F800A0FFF756F938
:1013B000064604E0FFF752F9801B02281FD8286870
:1013C0008007F7D42078000722D5824E83486169D0
:1013D000703671B101210160FFF740F9074604E062
:1013E000FFF73CF9C01B022809D830688007F7D501
:1013F0000EE0C0F800A0FFF731F9074605E082E0F3
:10140000FFF72CF9C01B02287DD830688007F7D47D
:101410002078400768D5DFF8BCB100270BF13C0B02
:10142000DBF80000C0000BD4DBF8001041F0805165
:10143000CBF80010DBF80000012700F0805000908E
:10144000674E3068C00510D4306840F4807030605A
:10145000FFF704F9009005E0FFF700F90099401A42
:10146000022850D83068C005F6D55A4EA0686C36B0
:1014700001280FD00528306810D020F0010030601E
:10148000306820F004003060A068B8B1FFF7E6F8DB
:1014900000900FE0306840F00100F4E740F00400F5
:1014A0003060F7E7FFF7DAF80099411A41F2883027
:1014B000814266D830688007F4D50EE0FFF7CEF899
:1014C000009007E0FFF7CAF80099411A41F288300E
:1014D000814256D830688007F4D42FB1DBF8001071
:1014E00021F08051CBF80010A069C8B33949091D1B
:1014F0000968C1F3810102294AD00228504607D069
:10150000C8F8600000E03CE0FFF7A8F804463BE0C4
:101510004746C8F86000FFF7A1F8064605E000BF9F
:10152000FFF79CF8801B02282BD828688001F7D48D
:10153000D4E907010843A16A2A4A490802EB01419C
:10154000626A41EA8211084394F82C1040EA016172
:10155000C9F8001001203866FFF780F8044606E05D
:1015600036E000BFFFF77AF8001B022809D8286888
:101570008001F7D52CE000BFFFF770F8001B0228B0
:1015800002D90320BDE8F88F28688001F4D41FE059
:101590000128F7D0D9F80000E26900F480019142F7
:1015A00014D1226A00F03F0191420FD147F6C07179
:1015B000626A0140914209D1A26A00F4403191422D
:1015C00004D1E16A00F07060884201D00120D9E7BF
:1015D0000020D7E70438024000004742800E47420F
:1015E000007000400000FFFF10B5401EB0F1807F8A
:1015F00001D3012010BD4FF0E02460610F2160177E
:1016000001F043FF0020A06107202061002010BDF1
:1016100083880A4600681946FFF71AB8818800686F
:10162000FFF70FB8012100F084B810B50446016936
:1016300001208847E16801208847E1690520884743
:10164000216900208847E16905208847E168BDE8F5
:1016500010400020084710B5044601690020884763
:10166000E16905208847E16801208847E169052094
:101670008847216901208847E169BDE810400520BD
:10168000084770B50446816900208847E169052054
:101690008847E16801208847E1690520884760693B
:1016A00080470546E16800208847A16901208847F6
:1016B000284670BD70B506460025816928468847D2
:1016C00000246D003046FFF7DCFF641C2844E4B2C0
:1016D000C5B2082CF5D3B16901208847284670BDF2
:1016E00070B50D460446FFF7A0FF2178204600F0B4
:1016F00033F8290A204600F02FF8E9B2204600F01E
:101700002BF82046FFF7A7FF2046FFF78EFF207833
:1017100040F00101204600F01FF82046FFF7CAFF05
:1017200005462046FFF77EFF2046FFF794FF284638
:1017300070BD10B50446026908469047E16905206E
:101740008847E16801208847E16905208847E1680A
:10175000BDE810400020084770B50D46064600243D
:10176000E9093046FFF7E5FF6806641C050EE4B2A0
:10177000082CF5D33046BDE87040FFF782BF2DE955
:10178000F04117460D4606460024FFF74EFF31781C
:101790003046FFF7E1FF00B10124290A3046FFF788
:1017A000DBFF00B10224E9B23046FFF7D5FF00B1FC
:1017B000032439463046FFF7CFFF00B104243046FA
:1017C000FFF749FF2046BDE8F0812DE9F0410D46C5
:1017D00006464FF47A7703E0F16938468847641C7F
:1017E000AC42F9D3BDE8F08170B5054643F20A0179
:1017F000FFF776FF4FF6FF7101EA002443F20B0179
:101800002846FFF76DFF204480B270BD70B50446D6
:10181000007808B978202070A169012088476168A4
:101820000020884714212046FFF7CFFFA168002041
:10183000884705212046FFF7C8FF616801208847D7
:1018400014212046FFF7C1FF204600F06EF8074E36
:10185000002500BF06EB850036F82510827820466B
:10186000FFF78DFF6D1CCF2DF4D370BDD438000869
:1018700070B5084D0646002405EB840035F82410A9
:1018800082783046FFF77BFF641CA4B2292CF3D387
:1018900070BD00007C3700082DE9F04715460E4664
:1018A00043F212281C46814603224146089FFFF757
:1018B00066FF220A43F608014846FFF760FFE2B2DE
:1018C00043F609014846FFF75AFF3A0A43F60A0170
:1018D0004846FFF754FFFAB243F60B014846FFF7BC
:1018E0004EFF320A43F610014846FFF748FFF2B2B6
:1018F00043F611014846FFF742FF2A0A43F6120158
:101900004846FFF73CFFEAB243F613014846FFF7AB
:1019100036FF132241464846FFF731FF414648460D
:10192000BDE8F047A322FFF72ABF10B504461122F5
:1019300043F20311FFF723FF822243F208012046FE
:10194000FFF71DFF2046BDE810400A21FFF73DBF0D
:10195000FEE70000F0B500230A24302537261F4695
:1019600011E000BFB4EB107F02D905EB107C01E061
:1019700006EB107C01F813C001EB430C00015B1C6B
:101980008CF80170DBB29342ECD3F0BD2DE9F04747
:1019900086B014216846FEF76FFC3B4800260168BC
:1019A00041F080010160016801F08001059101684A
:1019B00041F001010160016801F001010591016838
:1019C00041F0020101600068304F00F00200059014
:1019D000002220213846FEF73BFEDFF8B4A00122AA
:1019E00003215046FEF734FEDFF8A8904FF400487C
:1019F000002241464846FEF72BFE002218215046A1
:101A0000FEF726FE01242020CDE9000403256946C7
:101A10003846CDE90245FEF725FD1F4F4020CDE9B0
:101A20000007694602964846FEF71CFDCDE90054C2
:101A300069465046CDE90245FEF714FDCDE9008424
:101A400069464846CDE90245FEF70CFD1820CDE970
:101A500000040220CDE9024069465046FEF702FD2F
:101A60008020CDE90007694602965046FEF7FAFC51
:101A7000002211461720FEF76FFE1720FEF75FFECB
:101A800006B0BDE8F087000030380240001C02407C
:101A900000040240000002400000111010B50022B6
:101AA0000F49104800F035FC08B1FEF791FC0E49D3
:101AB0000C4800F007FE08B1FEF78AFC0B49094804
:101AC00000F033FA08B1FEF783FC064800F074FE1C
:101AD000002803D0BDE81040FEF77ABC10BD00001E
:101AE00018000020C81100206801002068000020B4
:101AF000FEE7FEE70148FEF7AFBF00009826002092
:101B00002DE9F04103680D4604461E6C03EB4511B8
:101B1000D1F8080BD4F810E04FF400474FF0200C38
:101B200004F57172BEF1010F09D0DFF898E0764537
:101B300039D1020432D500BFC1F8087B3FE0224B07
:101B40005FEA007E04D59E4239D90004F4D436E021
:101B50005FEA806E02D5C1F808CB30E010F0280FA4
:101B60002DD19E4201D90004E6D4C5EBC50004EB9B
:101B70008000D1F8101BD0F80432C1F31201591AB9
:101B8000C0F81412D0F808121944C0F8081295B918
:101B9000D4F8100278B9012120680AE080060AD53D
:101BA000C1F808CB07E035B9D4F8100218B9002104
:101BB000184601F0CFF9E9B22046FEF733FE0020C7
:101BC000BDE8F0810A31544F0A30544F2DE9F84FE7
:101BD0000E46C1EBC60100EB810481460568D4E9DD
:101BE00014103C34884202D90120BDE8F88F081A4D
:101BF000A168814200D20846C01C870805EB461840
:101C00001BE000BFA0EB010AA068504500D282464D
:101C10000AF10300870899F8100000901FFA8AF370
:101C2000F2B22846E16801F01DFCE16801EB0A0010
:101C3000E060A16901EB0A00A061D8F8180980B240
:101C4000B84205D3D4E90501814201D20028D9D197
:101C5000D4E90501884208D806F00F010120884028
:101C6000D5F834188143C5F834180020BDE7704713
:101C700070470178407841EA00207047FEF7F4BCD5
:101C800070B592B030216846FEF7F6FA14210CA820
:101C9000FEF7F2FA1E480025016841F0805101600C
:101CA000006800F0805011901A48016821F440410A
:101CB00041F4804101600068022400F4404011902A
:101CC00001200090000401908001CDE906400F261C
:101CD00008969020CDE9090405200B906846FFF78F
:101CE000D5FA08B172B6FEE74FF4A050CDE90E5018
:101CF0004FF48050CDE90C64109003210CA8FFF73D
:101D0000F3F9002801D072B6FEE712B070BD0000F2
:101D100040380240007000400548016841F47001FD
:101D2000016003494FF0006080390860704700008F
:101D300088ED00E02DE9F0410C46D0F8C432D0F82F
:101D4000BC12F9B104EB840200EB82020026956913
:101D50004DB1C4EBC40703EB87035B6CB5FBF3F732
:101D600003FB175383B1C1F81462D0F8C002D1F855
:101D7000085222460369284601F50471984700205D
:101D8000BDE8F0810320FBE7002396611A46214657
:101D900000F079FCF3E770B5D0F8BC4205466CB1B1
:101DA00000F07DFBC4F80C02D5F8C012D4F8040290
:101DB000CA6804F503719047002070BD032070BD10
:101DC00070B504460026812100F0C6FA002525875B
:101DD0000121204600F0C0FAA4F878518221204663
:101DE00000F0BAFAA4F84C50A4F84E50D4F8BC0253
:101DF00048B1D4F8C00204F52F74406880472068C9
:101E000001F090FB2560304670BD10B5D0E9AF41C0
:101E100059B194F80002FF2807D08B6894F801228A
:101E200021469847FF2084F80002002010BD0000E2
:101E30000A21018000487047900000204321018062
:101E400000487047E00000204321018000487047AF
:101E50009C0000204321018000487047240100209D
:101E60002DE9F04704464FF4077001F0C3FB05006D
:101E70004FF0000735D0C4F8BC52207C4FF010085A
:101E80004FF40079012680B34023022281212046AD
:101E900000F04EFB2687402302220121204600F05D
:101EA00047FBA4F87861A4F84E800823032282211E
:101EB000204600F03DFBA4F84C60D4F8C002006856
:101EC0008047C5F81472C5F81872207CD5F8042232
:101ED000A8B140230121204600F036FB0020BDE8D8
:101EE000F0870220C4F8BC72F9E7FFE74B460222F4
:101EF0008121204600F01CFB26874B46CCE74B4651
:101F0000E8E710B5D0F8BC1251B1027C002AD1F834
:101F1000042207D04023012100F016FB002010BD51
:101F2000032010BD4FF40073F5E719B1C0F8C012DB
:101F30000020704703207047D0F8BC02C0F804129C
:101F400000207047D0F8BC02C0F81022C0F8081278
:101F5000002070472DE9FC410546D0F8BC720020F6
:101F60008DF80000ADF80400064608780C4610F025
:101F7000600121D020293DD1E288AAB10006607815
:101F800007D5D5F8C0128B6839469847E28839469C
:101F900028E087F80002A07987F80102E288394634
:101FA000284600F06DF82AE0D5F8C01260780022CB
:101FB0008B682146984722E0607830B101281ED016
:101FC0000A2809D00B2815D110E095F89C020328A7
:101FD00010D1022201A905E095F89C02032809D13D
:101FE00001226946284600F065F808E095F89C0251
:101FF000032804D02146284600F037F8032630464F
:10200000BDE8FC8110B5D0F8BC12012219B1D1F89D
:10201000143213B10FE0032010BD0122C1F81422C5
:10202000D1F81022C262D1F81032D1F808228121F1
:1020300000F029FB0022104610BD10B5D0F8B822E0
:102040000AB152689047002010BD134610B50A46E9
:10205000002100F079FA002010BD134610B50A46A1
:10206000002100F010FB002010BD10B504468021B7
:1020700000F0EEFA2046BDE81040002100F0E8BA7A
:1020800010B50323C0F85821C0F89432C0F85C2181
:1020900013460A46002100F057FA002010BD10B583
:1020A00005210023C0F894121A46194600F04CFA94
:1020B000002010BD10B502238261C0F89432C261C5
:1020C00013460A46002100F0DEFA002010BD10B5CC
:1020D00004210023C0F894121A46194600F0D3FADE
:1020E000002010BD10B50A46024903A000F0E1F837
:1020F000004810BD9814002043444320436F6E668F
:1021000069670000122008800048704738000020EE
:1021100010B50A46024903A000F0CBF8004810BDF4
:102120009814002043444320496E746572666163CD
:10213000650000000420088000487047340000203B
:1021400010B50A46024903A000F0B3F8004810BDDC
:102150009814002053544D6963726F656C65637405
:10216000726F6E696373000010B50A46024903A0DE
:1021700000F09FF8004810BD9814002053544D33D0
:1021800032205669727475616C20436F6D506F72A6
:102190007400000010B51A2008800A480168001D6C
:1021A0000468001D0068081809D008220649FFF7D6
:1021B000D1FB0549042210312046FFF7CBFB024832
:1021C000801E10BD107AFF1F4E000020F8B5044697
:1021D0000020ADF8000048880D46010A08295FD2AA
:1021E000DFE801F05E0409175E5E3C45D4F8B412E6
:1021F000207C0A6819E0207C02260028D4F8B80266
:1022000005D0C16A684688470146467039E0816A50
:10221000F8E7C0B2062843D2DFE800F0030A101442
:10222000181CD4F8B402426805E0694690471CE0E7
:10223000D4F8B402826892B3207CF6E7D4F8B402F2
:10224000C268F8E7D4F8B4020269F4E7D4F8B4023B
:102250004269F0E7D4F8B4028269ECE7207CF0B977
:10226000D4F8B802416B68468847014609E0207CF3
:10227000A8B9D4F8B802016B684688470146072020
:102280004870EA888AB1BDF8000040B1824200D9A6
:102290000246ADF800202046FFF70CFFF8BDFFE72F
:1022A00029462046FFF7E1FEF8E72046FFF70FFF3B
:1022B000F4E770B5002300281ED00025044602E094
:1022C0006D1CEDB2641C2678002EF9D1022404EBBB
:1022D000450414801278CA545B1C0322CA5400249B
:1022E0005B1C06E0CA545B1CDAB28C54521CD3B29D
:1022F000401C0278002AF5D170BD01004FF00000AB
:1023000004D0012901D0022901D003207047012007
:10231000704730B4A0B1D0F8B84200230CB1C0F877
:10232000B832D0F8CC420CB1C0F8CC3209B1C0F808
:10233000B412012180F89C12027030BC00F0B4B8D5
:1023400030BC0320704710B5D0F8C402FEF79EFAE7
:10235000BDE81040FFF7D1BF10B5D0F8C402FEF7BA
:102360006FFABDE81040FFF7C8BF70B516460446C7
:1023700049B1D4F8B80242691AB194F89C02032812
:1023800042D0032070BDD4F89412002504F114004B
:10239000022932D1D0E902318B4206D95A1A826021
:1023A00031462046FFF759FE0FE0994214D14068AC
:1023B000884211D3D4F8981288420DD200221146D7
:1023C0002046FFF74AFEC4F8985200231A461946E1
:1023D000204600F0B9F810E0D4F8B802C16829B17D
:1023E00094F89C02032801D120468847802120468A
:1023F00000F02EF92046FFF752FE94F8A0020128C3
:1024000006D184F8A05203E0204690470028B9D1B5
:10241000002070BD10B51346044649B1D4F8B80287
:1024200082691AB194F89C02032824D0032010BDBD
:10243000D4F8941204F5AA70032920D1D0E902122D
:1024400091420AD98A1A8260C068824200D3024649
:1024500019462046FFF7F9FD11E0D4F8B8020169EA
:1024600029B194F89C02032801D1204688472046D0
:10247000FFF72DFE03E0204690470028D7D100202B
:1024800010BD0020704710B5012180F89C12D0F8D3
:10249000B82212B1526801799047002010BDD0F8DF
:1024A000C402FEF721BA000010B5017839BB154906
:1024B0000222C1F80404C0F8C4124FF0A040086022
:1024C000042048600020C1E90320C1E90620086219
:1024D0004862C86208630846FEF7E0FC08B1FDF7F1
:1024E00077FF80210748FEF76AF94022002105485E
:1024F000FEF769F9802201210248FEF764F9002005
:1025000010BD0000982600200A0601F07F01D0F8D7
:10251000C402C1EBC10100EB810002D590F83E007E
:10252000704790F8FE017047002070470020704708
:1025300010B51C461346D0F8C4022246FEF7DDF95A
:10254000BDE81040FFF7D9BE10B5D0F8C402FEF7C1
:1025500004FABDE81040FFF7D0BE70B5012504466F
:1025600080F89C520020C4F894026060C4F8A40271
:10257000D4F8BC0228B1D4F8B80200214268204641
:1025800090470022402311462046FFF7D1FF402606
:10259000A4F864513346002280212046C4F86061CB
:1025A000FFF7C6FFA5840020266270BD90F89C123C
:1025B000042903D190F89D1280F89C1200207047E6
:1025C00010B590F89C12032904D1D0F8B812C9694B
:1025D00001B18847002010BD01740020704710B57C
:1025E000D0F8C402FEF72CFDBDE81040FFF785BE11
:1025F00070B5044600F2AA20054600F04DF801200F
:10260000C4F89402B4F8B002C4F8980294F8AA028C
:1026100010F01F010AD001290ED0022912D000F0BB
:1026200080012046BDE8704000F012B829462046DF
:10263000BDE8704000F0C2B829462046BDE87040B1
:1026400000F0ECB929462046BDE8704000F040B9E2
:1026500010B5D0F8C402FEF7A4F9BDE81040FFF7AA
:102660004CBE10B5D0F8C402FEF705FDBDE8104021
:10267000FFF743BE90F89C1280F89D12042180F869
:102680009C120020704710B5D0F8C402FEF7C3F9C1
:10269000BDE81040FFF731BE70B5054611F8010BDB
:1026A0002870087868704C1C2046FFF7E2FA6880B2
:1026B000A41C2046FFF7DDFAA880A01CFFF7D9FA7A
:1026C000E88070BD38B504460020ADF8000041B187
:1026D000C4F8B812896A68468847C4F8CC0200205A
:1026E00038BD032038BD02460320D2F8B832002B93
:1026F00002D01B6810461847704700002DE9F041D2
:102700000F462C4E8978002504463170012906D9E0
:1027100039462046FFF7A9FC0320BDE8F08194F874
:102720009C0202280CD003281DD039462046FFF712
:102730009CFC31782046FFF780FC03252846ECE717
:1027400099B320466160FFF7CEFF050004D03946FB
:102750002046FFF78AFCF1E72046FFF7B8FC03208C
:1027600084F89C02EAE74FF00208C1B16068884231
:102770001BD0C1B22046FFF760FC31782046616073
:10278000FFF7B1FF050010D039462046FFF76DFC7A
:1027900021792046FFF751FC84F89C82CEE784F82B
:1027A0009C8220466160FFF748FC2046FFF78FFCC3
:1027B000C4E700008C000020FFF753BF2DE9F04173
:1027C0000A78002512F0600208D0202A01D0402AA1
:1027D00071D1D0F8B8229268904731E04B7800224E
:1027E00001260A2B67D2DFE803F0415E66586608CF
:1027F00005662D29FFF7EAFC5FE004468888D8B912
:10280000C888C8B94888802816D200F07F0794F895
:102810009C02032810D084F89E7239462046FFF7A8
:10282000DEFE2046FFF753FC1FB1022084F89C0215
:1028300043E084F89C6240E020463CE0FFF75EFF06
:1028400005463AE0CB88012B35D190F89C32012B1C
:1028500004D0022B02D0032B2DD104E08260012290
:1028600000F1080116E00122011D13E090F89C22FE
:10287000012A03D0022A01D0032A1CD1CA88022AC5
:1028800019D1C660D0F8A41209B10321C160022297
:1028900000F10C01FFF70EFC0FE0498801290CD173
:1028A000C0F8A46211E090F89C32012B08D0022BF2
:1028B00006D0032B04D0FFF7D8FB2846BDE8F081F3
:1028C00049880129F9D1C0F8A422FFF700FCF4E7F8
:1028D0002DE9F0410D46044628780027097910F0CB
:1028E00060000BD0202801D0402873D1D4F8B80262
:1028F000294682682046904707468CE06878D8B31E
:10290000012822D0032865D194F89C02022802D025
:1029100003287CD10BE0002979D0802977D020468C
:10292000FFF796FE80212046FFF792FE73E068884D
:1029300038B931B1802904D0E88810B92046FFF7B2
:1029400087FE2046FFF7C3FB65E094F89C0202284F
:10295000E1D003285BD16888D8BB480602D0204666
:10296000FFF7F1FC2046FFF7B2FBD4F8B802294686
:102970008268204690474EE0FFE794F89C020026CC
:10298000022802D0032842D111E009B180293ED1AA
:10299000080601F07F0000EB800004EB800101D508
:1029A000143101E001F5AA7102220E602BE0080645
:1029B00001F00F0000EB800004EB80000BD5808C51
:1029C00040B101F07F0000EB800004EB800514357E
:1029D0000CE020E01BE0B0F86401C0B101F07F0022
:1029E00000EB800004EB800505F5AA7541B1802954
:1029F00006D02046FFF788FD10B10120286000E0D6
:102A00002E60022229462046FFF754FB03E02946A8
:102A10002046FFF72AFB3846BDE8F08170B5064630
:102A2000087800240D4610F0600003D0202801D063
:102A3000402817D196F89C02012803D0022801D023
:102A400003280FD1287901280CD8D6F8B80282685B
:102A5000304690470446E888204306D13046FFF7C9
:102A600036FB02E03046FFF700FB204670BD000059
:102A700070B50A78012302F00F054E78AB401B4C6D
:102A8000D0F81C58012E17D045EA0343C0F81C3873
:102A900000EB4210D0F8002B12040BD4D0F8002B1E
:102AA0000B89C978C3F30A031A4344EA81410A43F4
:102AB000C0F8002B002070BD9BB21D43C0F81C580D
:102AC00000EB4210D0F800391B04F3D4D0F80039E1
:102AD0000D89C978C5F30A0589042B4341EA82515F
:102AE0000B432343C0F80039E4E7000000800010E6
:102AF000D0F800196FF30A01C0F80019D0F80418D3
:102B000041F48071C0F804180020704770B5044685
:102B100006990A9E049D0D98012916D0E06840F0A0
:102B20004000E060204600F02BF8A16B1EB321F4BA
:102B30008031A163012D07D1A16841F00601A16098
:102B4000A16841F02001A16070BDA16B21F480312A
:102B5000A163E168094A1140E160E16821F4401194
:102B6000E160012803D1E06840F48010E060204675
:102B700000F006F8DEE741F48031DAE7BFFFBDFF81
:102B800001220C4902E0521C8A420BD80369002B37
:102B9000F9DA026942F001020261012204E0521CEA
:102BA0008A4201D9032070470369DB07F7D100206F
:102BB00070470000400D030030B54C780A780123BF
:102BC00000EB4212012C2CD0D2F8004B002C0BDA77
:102BD000D2F8004B44F00064C2F8004BD2F8004B2E
:102BE00044F08044C2F8004BD0F83C580C7804F014
:102BF0000F0403FA04F425EA0444C0F83C48D0F872
:102C00001C48097801F00F018B4024EA0341C0F809
:102C10001C18D2F8000B19490840C2F8000B00201C
:102C200030BDD2F80049002C0BDAD2F8004944F04C
:102C30000064C2F80049D2F8004944F08044C2F868
:102C40000049D0F83C480D7805F00F0503FA05F56A
:102C5000ADB2AC43C0F83C48D0F81C48097801F04C
:102C60000F018B4099B28C43C0F81C48D2F8000980
:102C700003490840C2F80009D1E700000078F3EFEB
:102C8000007833ECD0F8001E21F00301C0F8001EDC
:102C9000D0F8041821F00201C0F804180020704791
:102CA000D0F8001E21F00301C0F8001ED0F804186F
:102CB00041F00201C0F80418002070472DE9F04FE0
:102CC00000250E460446DDF82CC0DDF824B0109F28
:102CD0002846294604EB8002C2F80411401C0F2844
:102CE000F8D32046C7B1806B20F40012A263A06B1A
:102CF00040F40022A26308468846C4F8000ED4F8C7
:102D000000182046C4F80018BCF1010F16D0D0F806
:102D1000001841F0030116E0D0F8040840F0020268
:102D2000C4F80428A06B40F40012A263A06B20F446
:102D30000022A263A06B20F48022DBE7D0F8001809
:102D40000BB141F00101C0F80018102100F090FA19
:102D500000B10125204600F07BFA00B10125404674
:102D6000C4F81088C4F81488C4F81C8800214FF0F7
:102D700000694FF0904A4FF67F3314E004EB4112A4
:102D8000D2F800C9BCF1000F06DA11B1C2F800A9EF
:102D900004E0C4F8009901E0C2F80009C2F8100983
:102DA000C2F80839491C8E42E8D8002115E000BF5E
:102DB00004EB4112D2F800CBBCF1000F06DA11B1DE
:102DC000C2F800AB04E0C4F8009B01E0C2F8000BBD
:102DD000C2F8100BC2F8083B491C8E42E8D8D4F860
:102DE000101821F48072C4F81028A0616FF08040A0
:102DF0006061BBF1000F03D1A06940F01000A06139
:102E0000A06909490843A0610C9818B1A06940F075
:102E10000800A061012F03D1A06904490843A06103
:102E20002846BDE8F08F000000383C8004000040D8
:102E3000816821F0010181600020704770B50D7834
:102E40004E78434CEBB200EB4313012E1FD0D3F866
:102E5000100B6FF31200C3F8100BD3F8100B2040C7
:102E6000C3F8100B486908B188684861D3F8100BA3
:102E700040F40020C3F8100BD3F8100B8C68C4F397
:102E800012042043C3F8100B012A55D058E04E69B4
:102E9000002ED3F8106932D06FF31206C3F8106910
:102EA000D3F810692640C3F810694E698C68A642B1
:102EB00000D94C61D3F8104944F40024C3F81049F8
:102EC000D3F810494E69C6F312063443C3F81049CB
:102ED000012A22D000EB4512D2F8003943F0044316
:102EE000C2F800394A6932B3D0F83428097801F0C1
:102EF0000F03012199400A43C0F8342826E02640F8
:102F0000C3F81069D3F8104944F40024C3F81049F9
:102F1000D3F810496FF31204D8E7096919B100EB2F
:102F20004512C2F8141900EB4510D0F8001941F011
:102F30000441C0F8001909E0C86808B1C3F8140BCF
:102F4000D3F8000B40F00440C3F8000B002070BD24
:102F5000FFFF07E010B5036C134CA34203D9D0F870
:102F6000003B002B1EDB0023C0F8103BD0F8103BC9
:102F700043F40023C0F8103BD0F8103B43F0180393
:102F8000C0F8103BD0F8103B43F0C043C0F8103BF2
:102F9000012907D1C0F8142BD0F8001B41F0802183
:102FA000C0F8001B002010BD0A30544F4A780B783F
:102FB000012A00EB43100BD0D0F8002B22F40012B2
:102FC000C0F8002BC978032914D0022912D017E0C9
:102FD000D0F8002922F40012C0F80029C97803298A
:102FE00001D002290CD1D0F8001941F08051C0F86D
:102FF000001905E0D0F8001B41F08051C0F8001B1B
:10300000002070470A784B78D1B200EB4110012BB9
:1030100012D0D0F8001B002906DB2AB1D0F8001B23
:1030200021F08041C0F8001BD0F8001B41F40011D2
:10303000C0F8001B00207047D0F80019002906DBFB
:103040002AB1D0F8001921F08041C0F80019D0F859
:10305000001941F40011C0F80019EBE7F8B50C783D
:103060004F78774DE3B26FF0604600EB4313012FCA
:1030700026D0D3F8104B6FF31204C3F8104BD3F8DB
:10308000104B2C40C3F8104B4C69002C74D08D6849
:103090002C44641EB4FBF5F4D3F8105BA4B206EA2A
:1030A000C4463543C3F8105BD3F8105B8E686643A3
:1030B000C6F312042543C3F8105B012A71D0A6E0C1
:1030C0004F691FB3D3F810796FF31207C3F8107963
:1030D000D3F810792F40C3F810794F698D682F44C9
:1030E0007F1EB7FBF5F506EAC545D3F810693543F1
:1030F000C3F81059D3F810594E69C6F31206354378
:10310000C3F81059CD78012D10D01BE0D3F8106909
:103110002E40C3F81069D3F8105945F40025C3F8C0
:103120001059D3F810596FF3120509E0D3F810596C
:1031300025F0C045C3F81059D3F8105945F0005593
:10314000C3F81059012A18D000EB4413D3F80049F2
:1031500044F00444C3F80049CC78012C2FD04A69CC
:1031600062B3D0F83428097801F00F0301219940A7
:103170000A43C0F8342860E036E00A691AB100EB6F
:103180004413C3F81429C97801290FD1D0F80818BD
:10319000C90500EB4411D1F8002903D442F00052D4
:1031A00002E030E042F08052C1F8002900EB441008
:1031B000D0F8001941F00441C0F800193DE0D0F802
:1031C0000848E405D3F8004902D444F0005401E073
:1031D00044F08054C3F8004900928A8A93B20A7876
:1031E000C96800F03FF928E0D3F8104B8D68C5F3AB
:1031F00012052C43C3F8104BD3F8104B44F40024B1
:10320000C3F8104B59E7CA680AB1C3F8142BC97840
:1032100001290CD1D0F80808C005D3F8000B02D45E
:1032200040F0005001E040F08050C3F8000BD3F8AC
:10323000000B40F00440C3F8000B0020F8BD000074
:10324000FFFF07E0816841F00101816000207047C5
:10325000002110220261054A491C914201D9032034
:1032600070470369DB06F7D400207047400D030068
:103270000022202343EA811101610549521C8A4240
:1032800001D90320704703699B06F7D400207047DB
:10329000400D0300D0F8080810F0060004D0022802
:1032A00003D0062801D00F207047022070474069E4
:1032B00000F001007047D0F81818D0F81C0808403A
:1032C00080B27047D0F81818D0F81C080840000CDD
:1032D000704710B5D0F81038D0F8342801F00F043A
:1032E00000EB4110E24002F00102D0F8080943EA85
:1032F000C212104010BD00EB4111D1F8081BD0F8EC
:103300001408084070474169806908407047D21C22
:1033100010B59308002200F5805002E00468521CAA
:1033200010C19A42FAD3084610BD10B5C26822F007
:10333000C042C260012902D029B1012010BDC1687C
:1033400041F0005102E0C16841F08041C16032208B
:10335000FDF740F8002010BDD0F8002822F4FE62EE
:10336000C0F80028D0F800284FF4FE6303EA0111EA
:103370000A43C0F80028002070470000022A3ED10E
:10338000264A274B0A449A4201D20F2138E0254AA7
:10339000254B0A449A4201D20E2131E0234A244BA4
:1033A0000A449A4201D20D212AE0224A224B0A44C1
:1033B0009A4201D20C2123E0204A214B0A449A422E
:1033C00001D20B211CE01F4A1F4B0A449A4201D232
:1033D0000A2115E01D4A1E4B0A449A420FD31D4A8A
:1033E0001D4B0A449A4201D2082109E01B4A1144AC
:1033F0001B4A914201D2072102E0062100E0092187
:10340000C26822F47052C260C2684FF4705303EA7B
:1034100081210A43C260002070470000405327FF0B
:1034200000350C00401E1BFF40420F0000DC0BFF6C
:10343000804F1200808CF9FE20D6130060B6E5FEA6
:1034400060E3160000D3CEFE40771B00C05BB3FEE6
:10345000C091210000CA91FE20753800E05459FE49
:10346000E09C410010B5029C64B9DB1C9C0800EB99
:103470000230002300F5805002E004C902605B1CAA
:10348000A342FAD3002010BDFEE70907090E002869
:1034900004DB00F1E02080F80014704700F00F001A
:1034A00000F1E02080F8141D704702E008C8121FE8
:1034B00008C1002AFAD170477047002001E001C11D
:1034C000121F002AFBD1704770B5054600244FF447
:1034D0007A7603E0304600F005F8641CAC42F9D37C
:1034E00070BD000070B54FF0E02300215D690B4A0C
:1034F0000B4C1268B2FBF4F49A6944439869904209
:10350000FCD002D2A2EB000202E0A5EB000632449E
:1035100011440246A142F1D370BD00008800002092
:1035200040420F0010B5002821D0114B0022001F8F
:10353000196803E0814203D80A4649680029F9D195
:1035400052B11368841A9C4204D100681844106078
:10355000104602E0506000E0186039B102680B1AB2
:10356000934203D10B681A4402604968416010BD60
:10357000A001002005490448022208608A80083121
:10358000086001208880704700040240000000208D
:1035900008B5FDF771F8FEF773FBFEF7F7F9FEF7D4
:1035A0007DFA1720FDF7BAF8FFF7E4FF01210E4876
:1035B000FEF72EF801210D48FEF72AF84FF47A7035
:1035C000FFF782FF00F04CF80948FEF751F9F020B0
:1035D00000904FF4A073002204210548FEF75CF927
:1035E0001720FDF7ACF8FEE70000002008000020DF
:1035F000A8010020F0B50B30154D20F00701002484
:10360000144A0FE003688B420BD38B4205D95E1A34
:1036100043184768C3E9006700E04368136002C0CD
:1036200004E0021D10680028ECD12046002802D1D9
:10363000286808B10020F0BD064A07481060074A14
:10364000121A22F00702C0E9002401202860D7E7FF
:10365000A4010020A0010020A42A0020A030002006
:103660001B4810B5194941601A4981601A49C16067
:103670001A4901611A4941611A4981611A49C161B6
:10368000FEF7C4F845F240641148FEF7ADF8A042D9
:10369000FAD1022243F216010D48FEF770F8022219
:1036A00043F21C010A48FEF76AF843F219040222A9
:1036B00021460748FEF763F83220FFF705FF214651
:1036C000BDE8104000220248FEF759B8FD36000858
:1036D000A8010020ED3600080D3700082937000842
:1036E0001D37000839370008E5340008024620215C
:1036F0000148FCF7ADBF0000001C024002464FF439
:1037000000410148FCF7A4BF00000240024610211E
:103710000148FCF79DBF0000000402400821014859
:10372000FCF78ABF00040240024608210148FCF76A
:103730008FBF00000004024010B586B0044614217B
:103740006846FCF799FD08200090012002900220B5
:1037500003900CB1012000E000200190694602486E
:10376000FCF780FE06B010BD00040240000000001F
:1037700000000000010203040607080900433000AE
:103780001F5000003530210036306900073C07002B
:103790002038460021382000143811001538110057
:1037A0000038000001380000023800000338000033
:1037B00004380A0005383F000638070007389F0024
:1037C00008380200093880000A3801000B38E00090
:1037D0000C380B000D381C000E3807000F38B000F5
:1037E000133804001836040012362B000937120073
:1037F0000C37000004400600023000000630FF00D5
:1038000013470300074401000B4635000C46220015
:1038100037481600243802000150A3000335000089
:1038200000436F001F500100353041003630690001
:10383000073C0700203846002138000014383100CA
:10384000153831000038000001380000023800004F
:103850000338000004380A0005383F000638060027
:103860000738A90008380500093800000A380200A6
:103870000B38D0000C3805000D38F8000E38030066
:103880000F3884001338040018360000123629005F
:10389000093752000C370300023A0200033AE000F5
:1038A000143A0200153AE0000440020002301C0005
:1038B0000630C30013470300074404000B463700DB
:1038C0000C46200037481600243804000150A3009D
:1038D0000335000008304200033103001730FF00B9
:1038E0001830FF0034301A0037301300083101005F
:1038F0003036360031360E003236E20033361200F2
:103900002136E0000437A00003375A00153778004D
:10391000173701000B37600005371A000539020020
:103920000639100001390A0031371200003608004C
:10393000013633002D306000203652001B37200046
:103940001C475000133A4300183A0000193AF80097
:103950003536130036360300343640002236010077
:10396000013C3400043C2800053C9800063C000063
:10397000073C0800083C0000093C1C000A3C9C0075
:103980000B3C4000103800001138100012380000C5
:10399000083764000140020005401A0000300000B2
:1039A0000430FF000E3058002E300000004330007D
:1039B0001F5000000E4400000050A7000F3A3000D6
:1039C000103A28001B3A30001E3A2600113A6000D7
:1039D0001F3A1400005823000158140002580F0029
:1039E00003580F00045812000558260006580C0012
:1039F0000758080008580500095805000A5808002B
:103A00000B580D000C5808000D5803000E5800000C
:103A10000F580000105803001158090012580700F1
:103A200013580300145800001558010016580300DD
:103A30001758080018580D00195808001A580500A2
:103A40001B5806001C5808001D580E001E5829005F
:103A50001F58170020581100215811002258150036
:103A600023582800245846002558260026580800C8
:103A70002758260028586400295826002A58240070
:103A80002B5822002C5824002D5824002E580600B4
:103A90002F5822003058400031584200325824003C
:103AA0003358260034582400355822003658220056
:103AB0003758260038584400395824003A58260010
:103AC0003B5828003C5842003D58CE008051FF0032
:103AD0008151F2008251000083511400845125006D
:103AE0008551240086510900875109008851090039
:103AF000895175008A5154008B51E0008C51B200FD
:103B00008D5142008E513D008F515600905146001C
:103B10009151F80092510400935170009451F000BB
:103B20009551F000965103009751010098510400FF
:103B3000995112009A5104009B5100009C510600BB
:103B40009D5182009E51380080540100815408002C
:103B50008254140083542800845451008554650015
:103B60008654710087547D008854870089549100E1
:103B70008A549A008B54AA008C54B8008D54CD00FE
:103B80008E54DD008F54EA0090541D0081531E00B6
:103B900082535B008353080084530A0085537E00E0
:103BA0008653880087537C0088536C00895310002B
:103BB0008A5301008B5398008055060083554000BE
:103BC00084551000895510008A5500008B55F80067
:103BD0001D504000005308000153300002531000F4
:103BE0000353000004530800055330000653080037
:103BF00007531600095308000A5330000B53040002
:103C00000C530600255000000830020040472100F8
:103C1000303C000800000020A8010000F00200086D
:103C2000F83C0008A8010020F8320000BA3400086F
:103C300001181305211B0835041A41041A69041AD6
:103C4000950413E5201B0811081704030904120149
:103C500014020202164083044057260201020301A7
:103C6000031A1A031351031B084D041A49041A7549
:103C7000041A8D0419331182105324F4130A0632E6
:103C8000022A401C1C0902435B1125C03209041B97
:103C900001020B130524161001052401100901046B
:103CA000240202052406170107058203081C1009D7
:103CB0000491320A1D07050102432C0705810709FB
:103CC00038442A40072A8107112B0907440A3B047C
:103CD0004413611E1408C11D1408551F42081A0B15
:103CE000101A35101A9704C11A49181A3D041A55AA
:083CF000041A310481000000F8
:04000005080001AD41
:00000001FF
